:100000000C94AB020C94F2020C94F2020C94F202E7
:100010000C94F2020C94F2020C94F2020C94F20290
:100020000C94F2020C94F2020C9449200C94F2020B
:100030000C943D160C94F2020C94F2020C94F20211
:100040000C94F2020C94F2020C94F2020C94F20260
:100050000C94F2020C941C250C94F2020C94F20203
:100060000C94F2020C94F2020C94F2020C94F20240
:100070000C94F2020C94F2020C94F2020C94F20230
:100080000C94F2020C94F2020C94F2020C94F20220
:100090000C94F2020C94F2020C94F2020C94F20210
:1000A0000C94F2020C94F2020C94F2027B067E068F
:1000B0008106840687068A068D06BD0CC10CC10C1C
:1000C000C10CC10CC10CC10CC50CC70CC90CCB0CAC
:1000D000CD0CCF0CD10CD30CD50CD70CB50CB70C68
:1000E000F80CF80CBF0CB90CBB0CD90CDB0CDD0CFC
:1000F000DF0CE10CE30CE50CE70CE90CEB0CED0C70
:10010000C30CC30CC30CC30CC30CC30CEF0C5A10B0
:10011000611068106F1076107D1084108B10921093
:100120009910F910F910F910F910F910F910A01040
:10013000A710AE10B510BC10C310CA10D110D81043
:10014000DF10E610ED1019131B1326131D131F13D8
:1001500021132313251328132A132C1337132E13BB
:1001600030133213341336133913FF13FF133E14B5
:100170003E145C141116111611168E1411168715E3
:100180008715B417B417C717C717BD17C717C717F1
:10019000C717B417B417C217C717C717C217DE1D82
:1001A000051E9D1F051E9D1F4D1E701E9D1F5B1F62
:1001B0006F1F4D6179203330203230313900763174
:1001C0002E303A205374656E6F6B6E6967687400E9
:1001D000000000000000000000000000000000001F
:1001E000000000000000000000000000000000000F
:1001F00000010101010101000101010100000000F5
:1002000000000000000000000000010001000101EA
:1002100001010101010101010101010101010101CE
:1002200001010101010101010101010000000101C1
:1002300000000000000000000000000000000000BE
:1002400000000000000000000000000101010100AA
:1002500000000000000000002A2B28000000000021
:100260000000000000000000000000290000000065
:100270002C1E3420212224342627252E362D3738D3
:10028000271E1F202122232425263333362E3738DC
:100290001F0405060708090A0B0C0D0E0F1011129A
:1002A000131415161718191A1B1C1D2F3130232D66
:1002B000350405060708090A0B0C0D0E0F10111264
:1002C000131415161718191A1B1C1D2F3130354C15
:1002D0000000165A175A185A00001A5A1B5A015190
:1002E00000001C5A1D5A195A00001E5A1F5A0000BD
:1002F0000000205A215A00000000225A295A00000A
:1003000000000000000000000000115A125A015ABB
:1003100000000D5A0E5A105A00000B5A0C5A0F5A70
:100320000000095A0A5A00000000075A085A000043
:1003300000001150155A00000000000000000000ED
:100340000000FF5C005D035D0000055D065D01517E
:100350000000075D085D045D0000095D0A5D0000A6
:1003600000000B5D0C5D000000000D5D0E5D0000E7
:1003700000000000000000000000FD5CFE5C015D6C
:100380000000F95CFA5CFC5C0000F75CF85CFB5C6C
:100390000000F55CF65C00000000F35CF45C00001B
:1003A00000001050F25C000000000000000000009F
:1003B00000D0D0D0D0D0D00101020408102041429A
:1003C000444848000000484850608182848890A0DA
:1003D000C1C2C4D0D0D0D0D0D0C80000000000002E
:1003E000000000000000000000000000000000000D
:1003F00005010906A1018501050719E029E7150096
:10040000250195087501810295017508810105088E
:100410001901290595057501910295017503910151
:100420000507190029FF150026FF009506750881AC
:1004300000C005010980A101850316010026030003
:100440001A81002A8300751095018100C0050C09EE
:1004500001A1018504160100269C021A01002A9CB4
:1004600002751095018100C005010906A1018505ED
:10047000050719E029E71500250195087501810296
:100480000508190129059505750191029501750366
:1004900091010507190029EF1500250195F0750157
:1004A0008102C009025F00030100A0FA09040000F4
:1004B000010301010009211101000122B300070518
:1004C000810320000A080B01020202010009040155
:1004D00000010202010005240010010424020205AB
:1004E00024060102070582030800FF090402000236
:1004F0000A0000000705040210000507058302102A
:10050000000512011001EF020108EDFE3713010092
:10051000010203010403300000000E0347006500E0
:100520006F0072006700690000002603670020006A
:1005300048006500610076007900200049006E00E7
:100540006400750073007400720069006500730038
:1005500000000403090411241FBECFEFDAE0DEBF60
:10056000CDBF04B603FE27C080919B0390919C03EE
:10057000A0919D03B0919E038730904BA740B04B54
:10058000D1F410929B0310929C0310929D03109241
:100590009E0314BE84B7877F84BF0FB6F894A895D6
:1005A00080916000886180936000109260000FBEAF
:1005B000E0E0F8E3099511E0A0E0B1E0EEE3FDE44E
:1005C00002C005900D92A033B107D9F723E0A0E354
:1005D000B1E001C01D92AB39B207E1F70E94CB2216
:1005E0000C949D260C9400009091770392FF0DC00F
:1005F000282F2871283019F4877F846006C0282F9F
:100600002471243011F48B7F886093FF0DC0282F54
:100610002871283119F4877E846106C0282F24713F
:10062000243111F48B7E886194FD877E0895609358
:100630003C0270933D0280933E0290933F02809172
:100640004A0290914B0290933B0280933A02EAEB6C
:10065000F1E0AAE3B1E041915191619171914D9323
:100660005D936D937D9382E0EA33F807A1F70895D7
:1006700090916302923069F490916202943158F43F
:10068000E92FF0E0E35BFD4F80839F5F9093620270
:1006900008950C94291B0895CF92DF92EF92FF9258
:1006A000C0906502D0906602E0906702F090680208
:1006B000C11491E0D906E104F10421F4811111C1C2
:1006C00084E109C1C11492E0D906E104F10421F4E6
:1006D000811107C184E0FFC0C11494E0D906E10490
:1006E000F10421F48111FDC08AE1F5C0C11490E14B
:1006F000D906E104F10421F48111F3C088E0EBC0D4
:10070000C11490E4D906E104F10421F48111E9C097
:1007100085E1E1C0C11498E0D906E104F10421F4B7
:100720008111DFC086E1D7C0C11490E2D906E1048F
:10073000F10421F48111D5C087E0CDC0C11490E847
:10074000D906E104F10421F48111CBC089E0C3C0D2
:1007500094E0C916D104E104F10421F48111C1C06F
:1007600087E1B9C098E0C916D104E104F10421F48D
:100770008111B7C08AE0AFC0C114D10491E0E9068D
:10078000F10421F48111ADC086E0A5C0C114D104EB
:1007900092E0E906F10421F48111A3C089E19BC034
:1007A000C114D10494E0E906F10421F4811199C047
:1007B00081E191C0C114D10498E0E906F10421F46B
:1007C00081118FC080E187C090E1C916D104E10496
:1007D000F10421F4811185C08CE17DC090E2C9163D
:1007E000D104E104F10421F481117BC08BE073C0DA
:1007F000C114D10490E1E906F10421F4811171C022
:1008000088E169C0C114D10490E4E906F10421F43F
:10081000811167C08CE05FC0C114D104E10491E094
:10082000F90621F481115DC082E155C0C114D104E3
:10083000E10494E0F90621F4811153C083E14BC037
:10084000C114D104E10490E1F90621F4811149C0F9
:100850008FE241C0C114D10490E2E906F10421F411
:1008600081113FC08DE037C0C114D10490E8E90682
:10087000F10421F4811135C08EE02DC0C114D104E2
:10088000E10492E0F90621F481112BC08FE023C02E
:10089000C114D104E10498E0F90621F4811121C0CA
:1008A00083E319C0C114D104E10490E2F90621F4F4
:1008B000811117C086E30FC090E4C916D104E1048A
:1008C000F10431F090E8C916D104E104F10431F4E7
:1008D000811107C08EE10E94380303C0C12CD12CC6
:1008E0007601C701B601FF90EF90DF90CF90089599
:1008F000CF92DF92EF92FF92CF93C0903201D090CF
:100900003301E0903401F0903501C222D322E42279
:10091000F522C216D306E406F506F9F4C62F862F93
:100920000E94291B8C2F0E94CD1AC094D094E09471
:10093000F0948091320190913301A0913401B091F3
:100940003501C822D922EA22FB22C0923201D0927C
:100950003301E0923401F0923501CF91FF90EF9096
:10096000DF90CF9008951F93CF93DF93EC01FE01AA
:100970002491222309F434C0CE010196213021F4C0
:10098000EC01FC01149124C0223031F4EC01FC0193
:1009900084910E94291B22C0233021F4EC01FC0128
:1009A00084911AC030E0F901E05BFD4F1491F90128
:1009B000E053FE4F2491222359F081EE0E94291B1F
:1009C000812F0E94291B812F0E94CD1A81EE04C025
:1009D000812F0E94291B812F0E94CD1A2196C7CFFB
:1009E000DF91CF911F910895CF92DF92EF92FF9206
:1009F000C0906502D0906602E0906702F0906802B5
:100A000090E4C916D104E1049CE3F90659F481117C
:100A100032C18EEB91E00E94B30482EB91E00E9420
:100A2000B30429C1C1149DE3D906E104F10431F0F6
:100A3000C1149EE3D906E104F10421F481111BC124
:100A40008DE113C1C11499EAD906E104F10431F032
:100A5000C1149AEAD906E104F10421F481110BC111
:100A60008DE003C1C11491E8D906E104F10431F02D
:100A7000C11492E8D906E104F10421F48111FBC00C
:100A800089E1F3C0C11491E0D90690E4E906F104CC
:100A900039F0C11492E0D90690E4E906F10421F49A
:100AA0008111E9C08CE2E1C0C11491E0D906E104F2
:100AB000F10431F0C11492E0D906E104F10421F40B
:100AC0008111D9C086E1D1C0C1149CE3D906E104EB
:100AD000F10421F48111CFC08AE0C7C0C11494E5AC
:100AE000D906E104F10421F48111C5C081E1BDC042
:100AF000C1149CE0D906E104F10421F48111BBC0CA
:100B000087E0B3C0C11494E1D906E104F10421F4F3
:100B10008111B1C089E0A9C0C11494E0D906E104F3
:100B2000F10421F48111A7C087E19FC0C11498EAA4
:100B3000D906E104F10421F481119DC08CE195C036
:100B4000C11498E1D906E104F10421F4811193C0A4
:100B50008BE18BC0C11498E2D906E104F10421F4C1
:100B6000811189C084E181C0C11498E8D906E104EB
:100B7000F10421F481117FC086E077C0C11490E3B5
:100B8000D906E104F10421F4811175C085E06DC03E
:100B9000C11490E5D906E104F10421F481116BC080
:100BA00080E163C0C11490E1D906E104F10421F4AD
:100BB000811161C083E159C0C11490E2D906E104FA
:100BC000F10421F4811157C08AE14FC0C11490ECA7
:100BD000D906E104F10421F481114DC08FE045C034
:100BE000C11490E4D906E104F10421F4811143C059
:100BF0008BE03BC0C11490E8D906E104F10421F474
:100C0000811139C085E131C0C114D10491E0E906F8
:100C1000F10421F481112FC084E027C0C114D10454
:100C200092E0E906F10421F4811125C082E11DC0A2
:100C3000C114D1049CE0E906F10421F481111BC028
:100C40008CE013C0C114D10494E0E906F10421F44E
:100C5000811111C088E009C0C114D10498E0E906EF
:100C6000F10431F4811107C088E10E94380303C008
:100C7000C12CD12C7601C701B601FF90EF90DF9017
:100C8000CF900895CF93E82F873058F580910101D8
:100C900090910201892B09F042C0CE2F80E40E947E
:100CA0006C259093020180930101892BB1F482E1BC
:100CB0000E94B6259093020180930101892B69F46B
:100CC00081E090E001C0880FCA95EAF780950E9404
:100CD000B625909302018093010184E98093BC00C2
:100CE0001EC090E0FC013797E730F105C0F4EA5AE6
:100CF000FF4F0C949726209A289811C0219A299882
:100D00000EC0229A2A980BC0239A2B9808C0529A98
:100D10005A9805C0539A5B9802C03E9A4698CF9164
:100D20000895EF92FF920F931F93CF93DF93C82FF5
:100D3000873008F047C08091010190910201892B12
:100D400009F04BC080E40E946C25909302018093CF
:100D50000101892B11F090E031C083E10E94B6259A
:100D60009093020180930101892BA9F781E40E94ED
:100D70006C259093020180930101892B61F784E82F
:100D80008093BC000E9431168C019091BC0097FDAD
:100D90000EC00E943116801B910B883E9340A8F331
:100DA0008EEF9FEF9093020180930101D4CF909139
:100DB000BB009095109202011092010184E980938A
:100DC000BC000CC02FB19FB19077969596959695E3
:100DD00026952170922B909501C090E0EC2FF0E0C9
:100DE000DF01A859BC4F6C9169279C93DF01AA0FC2
:100DF000BB1FAA0FBB1FA05DBC4F40E050E020E02E
:100E0000C1E0D0E070E085E0142F3C91332319F06D
:100E100031503C9307C07E01042E01C0EE0C0A94B1
:100E2000EAF72E297B0102C0F594E7941A95E2F7C0
:100E3000E0FC8C934F5F5F4F11964430510521F7D2
:100E4000322F3095E458FC4F808183239223892BE5
:100E5000DF91CF911F910F91FF90EF9008951F9315
:100E6000CF93DF93CDB7DEB767970FB6F894DEBFA9
:100E70000FBECDBF4B8B5C8B6D8B7E8B8F8B86E0DB
:100E80009E01235F3F4FD901E82F1D92EA95E9F7B4
:100E900095E0FE017396D90101900D929A95E1F7C4
:100EA000F901DE01179601900D928A95E1F7CE01C6
:100EB00007960E94E318811136C086E0FE0137963E
:100EC000DE01119601900D928A95E1F77F81688588
:100ED000EA85FB85309739F16F3F11F47F3F19F1B7
:100EE00020919D0230E0C9010196877099274091B9
:100EF000CE0250E08417950779F179836A83FD83E8
:100F0000EC8396E0929FD001939FB00D1124A256DE
:100F1000BD4FFE01319601900D929A95E1F78093B5
:100F20009D020E947E1816E08091CE0290919D0253
:100F3000891701F1189FC001112482569D4F0E940C
:100F4000E3188823B9F08091CE0290E00196877073
:100F500099278093CE02E8CF0E94A11A10929D0299
:100F60001092CE02E7E9F2E086E0DF011D928A9559
:100F7000E9F7D9CF67960FB6F894DEBF0FBECDBFA5
:100F8000DF91CF911F910895209142023091430249
:100F90008217930771F09093430280934202E0918D
:100FA0007903F0917A03309721F00084F185E02DE8
:100FB00009940895209140023091410282179307CD
:100FC00071F09093410280934002E0917903F09197
:100FD0007A03309721F00680F781E02D0994089577
:100FE000E0917903F0917A03309721F00190F0813C
:100FF000E02D099480E0089586E0E4E4F2E0DF016A
:10100000982F1D929A95E9F7E9E6F2E0DF011D922B
:101010008A95E9F70895CF93DF931F92CDB7DEB796
:1010200089830E94FC07898180937603682F8DE075
:1010300090E00F90DF91CF910C945726CF93DF93E0
:1010400000D000D01F92CDB7DEB76B837C838D8339
:101050008C819D81892B21F05F3F69F44F3F59F4CA
:1010600080E090E081700F900F900F900F900F90A4
:10107000DF91CF9108958B81F5CFCF93DF93E72F49
:10108000F0E02EE0829FE00DF11D1124EE0FFF1F16
:10109000EE0FFF1FE60FF11DEE0FFF1FE053FD4F98
:1010A000C591D491CE01C238D10549F1B0F4C13314
:1010B000D10509F464C048F4C932D10509F458C017
:1010C000CA32D10509F462C068C0C533D10509F43C
:1010D00048C0C933D10599F060C0C33ED10541F184
:1010E00038F4C03ED10591F0C23ED105B1F055C0F3
:1010F000C63ED10521F1C73ED10561F14EC0209118
:10110000770320FD09C221FD07C208C220917703A1
:1011100020FF04C289E390E001C22091770322FFFF
:10112000FDC18091770384FDA9C183EE90E0F6C1F3
:101130008091770382FFF5CF82EE90E0EFC120919E
:10114000770323FFEBC18091770384FD97C187EE7E
:1011500090E0E4C18091770383FFF5CF86EE90E0C5
:10116000DDC12091770325FFD9C189E290E0D6C186
:101170002091770325FFD2C185E390E0CFC1209174
:10118000770326FFCBC18AE290E0C8C120917703A4
:1011900026FFC4C181E390E0C1C1C11530E5D3078A
:1011A00008F049C0C11520E4D20708F030C1C83E9C
:1011B000D10520F5C03ED10508F0B0C1C83AD1052F
:1011C00070F4C53AD10508F0ACC0C130D10509F4BE
:1011D000A5C108F453C1249708F450C19FC1CF3B67
:1011E000D10508F4A9C0C03CD10508F447C1CE011F
:1011F000880F991FFC01E05BFE4FFDC0C11530E276
:10120000D30760F4C11521E0D20708F087C1C03FC1
:10121000D10508F433C1CE01906580C1C11530E31A
:10122000D30708F0EBC0CE019F70FC01EE0FFF1F4B
:10123000E053FD4FE0C0C11585E5D80708F044C074
:10124000C11594E5D90708F0FAC0C11522E5D20707
:1012500010F5C11531E5D30708F0DDC02C2F237040
:1012600081E090E002C0880F991F2A95E2F79C6800
:101270009E0174E0369527957A95E1F72370922BBD
:10128000EC2FEF70E695E69530E2E39FF001112434
:101290008E2B9F2B43C18C2F86958695AE01437074
:1012A0005527C115D34508F0BBC090E2899F900136
:1012B000112481E090E002C0880F991F4A95E2F75F
:1012C000822B932B9C682AC1C11529E5D20798F47B
:1012D000C11538E5D30708F0B7C0C11586E5D807B2
:1012E00008F0CCC08C2F0E94F4028F7190E0982FF0
:1012F0008827906213C1C1159AE5D90708F4A9C0DF
:10130000CE0190568115904208F0B8C08D2F8F7194
:101310000E94F402FE01FF27F0628F719F01382BBB
:10132000ABC0C53AD10509F4ACC0C63AD10509F045
:10133000ABC082E890E4F2C0C83AD10509F4A7C076
:10134000C93AD10509F4A6C0CA3AD10509F4A5C025
:10135000CB3AD10509F4A4C0CC3AD10509F4A3C015
:10136000CB3BD10509F4A2C0CC3BD10509F4A1C007
:10137000CD3AD10509F4A0C0C03BD10509F49FC006
:10138000CE3AD10509F49EC0CF3AD10509F49DC0EB
:10139000C13BD10509F49CC0C23BD10509F49BC0F7
:1013A000C33BD10509F49AC0C43BD10509F499C0E7
:1013B000C53BD10509F498C0C63BD10509F497C0D7
:1013C000C73BD10509F496C0C83BD10509F495C0C7
:1013D000C93BD10509F494C0CD3BD10509F493C0B4
:1013E000CE3BD10509F492C0CA3BD10509F491C0A6
:1013F00080E094E493C08591949190C09E0133273E
:10140000C901D3FF02C0986C89C0906C87C0CE011F
:101410009F70906A83C09C2F8827816F906A7EC0DE
:1014200090E2899F9001112481E090E002C0880F32
:10143000991F4A95E2F7822B932B9A686FC09C2FD5
:101440008827846F906A6AC09C2F8827806F906A73
:1014500065C08C2F8F700E94F402FE0194E0F69517
:10146000E7959A95E1F7EF70F0E0FE2FEE27F06A2E
:101470008F70806E9F01282BC90150C080E090E0E2
:101480004DC081E890E44AC083E890E447C082EE12
:1014900094E444C089EE94E441C08AEE94E43EC0F2
:1014A00085EB94E43BC086EB94E438C083EB94E492
:1014B00035C084EB94E432C087EB94E42FC08CEC0D
:1014C00094E42CC08DEC94E429C083E895E426C014
:1014D0008AE895E423C082E995E420C084E995E494
:1014E0001DC081E296E41AC083E296E417C084E24C
:1014F00096E414C085E296E411C086E296E40EC03C
:1015000087E296E40BC08FE694E408C080E794E499
:1015100005C08AE296E402C080EE90E0DF91CF91B0
:1015200008952F923F924F925F926F927F928F9287
:101530009F92AF92BF92CF92DF92EF92FF920F9362
:101540001F93CF93DF93CDB7DEB7CB57D1090FB63B
:10155000F894DEBF0FBECDBF182FC0906502D090AB
:101560006602E0906702F0906802C0FE0CC0D701EE
:10157000C60121E082278093650290936602A093C2
:101580006702B0936802112361F181E00E944C036D
:101590004090650250906602609067027090680209
:1015A0006415750586059705E1F480E0C558DF4FA1
:1015B0000FB6F894DEBF0FBECDBFDF91CF911F9164
:1015C0000F91FF90EF90DF90CF90BF90AF909F90E2
:1015D0008F907F906F905F904F903F902F900C94E2
:1015E0004C0381E00E94F404409065025090660232
:1015F000609067027090680264157505860597050E
:1016000009F056C080E00E94F404809139018823DB
:1016100061F180913C0290913D02A0913E02B09117
:101620003F028093650290936602A0936702B09395
:10163000680280913A0290913B0290934B02809312
:101640004A02EAE3F1E0AAEBB1E0419151916191E4
:1016500071914D935D936D937D9331E0EA3BF30778
:10166000A1F71092390110E078CF60916502709176
:1016700066028091670290916802C558DF4F0FB6ED
:10168000F894DEBF0FBECDBFDF91CF911F910F91B8
:10169000FF90EF90DF90CF90BF90AF909F908F9092
:1016A0007F906F905F904F903F902F900C94170316
:1016B000AE014F5F5F4FA3965FAF4EAFA397A59666
:1016C0005FAF4EAFA597412C512C3201E6961FAE6D
:1016D0001EAEE697C414D504E604F70409F4CFC09F
:1016E0002AEB31E0A7963FAF2EAFA797212C312CE4
:1016F000A8961FAEA897EB961FAEEB97EC961FAE81
:10170000EC9700E060E070E0CB015301420180946F
:101710009094A094B094E0968CAE9DAEAEAEBFAE69
:10172000E097A30192012270332744275527E496BE
:101730002CAF3DAF4EAF5FAFE49720914A0230919E
:101740004B02221533050CF471C0A796AEADBFADA8
:10175000A7972D913D914D915D91A796BFAFAEAFEB
:10176000A797E0968CAC9DACAEACBFACE097822264
:101770009322A422B522EA968CAE9DAEAEAEBFAE49
:10178000EA978092650290926602A0926702B092F8
:10179000680281149104A104B10409F443C0211426
:1017A000310481F0611571058105910559F0862696
:1017B0009726A826B926A5019401223031054105B6
:1017C0005105F1F1E4968CAC9DACAEACBFACE497A6
:1017D00089288A288B2879F0EA968CAD9DADAEAD2C
:1017E000BFADEA9782608093650290936602A093F2
:1017F0006702B093680281E0112319F00E944C0344
:1018000002C00E94F404611571058105910551F033
:10181000A8966FAFA897EB967FAFEB97EC968FAF3C
:10182000EC97092F2FEF221A320A87CFA8966FADB7
:10183000A897EB967FADEB97EC968FADEC97902F3A
:10184000462A572A682A792AA596AEADBFADA59734
:101850006D937D938D939D93A596BFAFAEAFA597E6
:10186000E6962EAD3FADE6972F5F3F4FE6963FAF32
:101870002EAFE6972831310509F02CCF39C0A12CC5
:10188000B12CE6968EAC9FACE697A814B90401F192
:10189000A396EEADFFADA39781919191A191B191E6
:1018A000A396FFAFEEAFA397809365029093660275
:1018B000A0936702B093680280E0112319F00E94A0
:1018C0004C0302C00E94F404FFEFAF1ABF0AD9CF45
:1018D00080913901811104C0C701B6010E9417032C
:1018E000C0926502D0926602E0926702F0926802AE
:1018F000C558DF4F0FB6F894DEBF0FBECDBFDF91E6
:10190000CF911F910F91FF90EF90DF90CF90BF90FC
:10191000AF909F908F907F906F905F904F903F908F
:101920002F900895CF93DF93FB012281222309F4A6
:101930007BC0EC010E9431169093380180933701EF
:1019400081E080934C02FE01FA55EA32F10508F07D
:101950004FC0E35AFF4F409165025091660260917B
:101960006702709168020C949726446039C0486001
:1019700037C0406135C0406233C0416031C0426011
:101980002FC040642DC040682BC0516029C05260F8
:1019900027C0546025C0586023C0506121C05062E8
:1019A0001FC050641DC050681BC0616019C06260D8
:1019B00017C0646015C0686013C0606111C06062C8
:1019C0000FC060640DC060680BC0716009C07260B8
:1019D00007C0746005C0786003C0706101C07062A8
:1019E00040936502509366026093670270936802A9
:1019F00080914A0290914B02FC01EE0FFF1FEE0F07
:101A0000FF1FE654FE4F40916502509166026091BF
:101A100067027091680240835183628373830196E9
:101A200090934B0280934A0281E0DF91CF91089519
:101A3000109265021092660210926702109268027C
:101A400010924C0210924B0210924A020E94A11A6C
:101A500010923601EAEBF1E08FEF9FEFA0E0B0E0EB
:101A600081939193A193B19322E0EA33F207C1F7F6
:101A700080E008950F931F9300913201109133017C
:101A80002091340130913501DC01CB01442369F010
:101A9000802B912BA22BB32B809332019093330197
:101AA000A0933401B0933501C1C180239123A223B7
:101AB000B323892B8A2B8B2B09F4B8C120E03DE39B
:101AC00040E050E06DE170E080E090E00E9478043A
:101AD00020E039EA40E050E06DE070E080E090E026
:101AE0000E94780420E031E840E050E069E170E0D5
:101AF00080E090E00E94780420E031E040E450E093
:101B00006CE270E080E090E00E94780420E031E038
:101B100040E050E066E170E080E090E00E947804F0
:101B200020E03EE340E050E06DE170E080E090E0D6
:101B30000E94780420E03AEA40E050E06DE070E076
:101B400080E090E00E94780420E032E840E050E03D
:101B500069E170E080E090E00E94780420E032E0EB
:101B600040E450E06CE270E080E090E00E94780495
:101B700020E032E040E050E066E170E080E090E09C
:101B80000E94780420E03CE340E050E06AE070E02E
:101B900080E090E00E94780420E034E540E050E0EE
:101BA00061E170E080E090E00E94780420E03CE099
:101BB00040E050E067E070E080E090E00E94780450
:101BC00020E034E140E050E069E070E080E090E047
:101BD0000E94780420E034E040E050E067E170E0EB
:101BE00080E090E00E94780420E038EA40E050E095
:101BF0006CE170E080E090E00E94780420E038E141
:101C000040E050E06BE170E080E090E00E947804FA
:101C100020E038E240E050E064E170E080E090E0F5
:101C20000E94780420E038E840E050E066E070E090
:101C300080E090E00E94780420E038E040E050E04E
:101C40006EE070E080E090E00E94780420E030E3F5
:101C500040E050E065E070E080E090E00E947804B1
:101C600020E030E540E050E060E170E080E090E0AE
:101C70000E94780420E030E140E050E063E170E051
:101C800080E090E00E94780420E030E240E050E004
:101C90006AE170E080E090E00E94780420E030EC9F
:101CA00040E050E06FE070E080E090E00E94780457
:101CB00020E030E440E050E06BE070E080E090E055
:101CC0000E94780420E030E440E050E06BE070E0F7
:101CD00080E090E00E94780420E030E840E050E0AE
:101CE00065E170E080E090E00E94780420E030E060
:101CF00041E050E064E070E080E090E00E94780411
:101D000020E030E042E050E062E170E080E090E00E
:101D10000E94780420E030E04CE050E06CE070E09D
:101D200080E090E00E94780420E030E044E050E061
:101D300068E070E080E090E00E94780420E030E00D
:101D400048E050E068E170E080E090E00E947804B4
:101D500020E030E040E150E069E070E080E090E0B9
:101D60000E94780420E030E040E250E065E170E05D
:101D700080E090E00E94780420E030E040EC50E009
:101D800061E170E080E090E00E94780420E030E0C3
:101D900040E450E063E170E080E090E00E9478046D
:101DA00020E030E040E850E065E070E080E090E066
:101DB0000E94780420E030E040E051E06FE070E005
:101DC00080E090E00E94780420E030E040E052E0C3
:101DD0006AE070E080E090E00E94780420E030E06B
:101DE00040E054E067E170E080E090E00E94780419
:101DF00020E030E040E058E066E170E080E090E014
:101E00000E94780420E030E040E050E167E070E0BC
:101E100080E090E00E94780420E030E040E050E272
:101E20006DE170E080E090E00E94780481E01F9115
:101E30000F91089580E290E0909302018093010158
:101E400080913101811111C01092B9008CE0809312
:101E5000B80081E0809331012FEF83ED90E32150B2
:101E600080409040E1F700C0000080E40E946C25B3
:101E70009093020180930101892B09F040C080E01A
:101E80000E94B6259093020180930101892BB9F538
:101E900080E80E94B6259093020180930101892B6E
:101EA00071F58FEF0E94B625909302018093010196
:101EB000892B29F584E98093BC0080E40E946C257D
:101EC0009093020180930101892BC9F48CE00E9458
:101ED000B6259093020180930101892B81F480E85B
:101EE0000E94B6259093020180930101892B39F459
:101EF0008FEF0E94B625909302018093010184E93F
:101F00008093BC0080910101089584B1807F84B9E1
:101F100085B1807F85B93E9846988AB1837F8AB91A
:101F20008BB1837F8BB9089580B38D7880BB81B3EB
:101F3000826781BB0895EF92FF920F931F93CF9317
:101F4000DF938091010190910201892B71F08091C2
:101F500030018F5F80933001811107C00E941A0FFA
:101F600090E090930201809301018CE7E82E83E0DA
:101F7000F82E03E813E0C0E08C2F0E944206D7E061
:101F8000DC0F8D2F0E9442068C2F0E949106F701D4
:101F900081937F018D2F0E949106F80181938F011B
:101FA0000E94850FCF5FC73039F78091630281307F
:101FB00069F580914C02882349F18091360188238C
:101FC000A9F080913701909138010E9442254A97EB
:101FD00068F080E00E94910A0E9426170E94A11AD0
:101FE0000E94311690933801809337018091360119
:101FF00081110CC080913701909138010E944225D7
:102000008F3E924018F081E08093360181E0DF91AD
:10201000CF911F910F91FF90EF900895BF92CF92B3
:10202000DF92EF92FF920F931F93CF93DF931F9254
:10203000CDB7DEB7FC01D080C18083819481892B2C
:1020400009F404C6EE24EA94CE1003C0DE1409F4A9
:10205000FDC58F01E080F1808281882349F0C701AE
:102060000E945817B82E682FC7010E94F61704C0A7
:10207000C7010E94CB17B82EEC2DF0E02EE0B29EE7
:10208000E00DF11D1124EE0FFF1FEE0FFF1FED0DF0
:10209000F11DEE0FFF1FE053FD4FE590F490F701A7
:1020A000E35FFC45EC31F10508F0A3C0E957FF4FB1
:1020B0000C949726F801428160E071E080E090E0A6
:1020C00092C0F801428160E072E080E090E08BC055
:1020D000F801428160E074E080E090E084C0F801A3
:1020E000428160E078E080E090E07DC0F8014281CC
:1020F00060E070E180E090E076C0F801428160E04D
:1021000070E280E090E06FC0F801428160E070E42E
:1021100080E090E068C0F801428160E070E880E013
:1021200090E061C0F801428160E070E081E090E001
:102130005AC0F801428160E070E082E090E053C054
:10214000F801428160E070E084E090E04CC0F8016A
:10215000428160E070E088E090E045C0F801428193
:1021600060E070E080E190E03EC0F801428160E014
:1021700070E080E290E037C0F801428160E070E0FA
:1021800080E490E030C0F801428160E070E080E8D7
:1021900090E029C0F801428160E070E080E091E0C9
:1021A00022C0F801428160E070E080E092E01BC054
:1021B000F801428160E070E080E094E014C0F80132
:1021C000428160E070E080E098E00DC0F80142815B
:1021D00060E070E080E090E106C0F801428160E0DC
:1021E00070E080E090E20E943A0D882309F42EC549
:1021F000D3C2F0E3EF16FAE5FF0661F028F4C70159
:102200009A558A9798F15EC181E3E8168AE5F80647
:10221000B1F058C1B80180E39AE50E94920C88237E
:1022200009F414C5F8014081518162817381848170
:102230000E941E08882309F409C580E014C0B80173
:1022400081E39AE50E94920C882309F4FFC4F80107
:10225000408151816281738184810E941E0888239C
:1022600009F4F4C481E00E940B08F0C4B801C7016E
:102270000E94920C882309F4E9C480917603882394
:1022800019F0813059F155C0F801408151816281C6
:10229000738184810E941E08F701FF27E055FC4FDF
:1022A0009491A92FA295A695A695A370B0E0882336
:1022B00069F09D012C5B3D4FF9018081892B808362
:1022C000A759BD4F8C91E92FE82B06C0AC5BBD4FE1
:1022D000E92FE0958C91E823EC932BC0F801408125
:1022E00051816281738184810E941E08F82E8E2D97
:1022F00067E00E948B26E82FF0E046E050E0491BA3
:10230000510921E030E001C0220F4A95EAF7DF01D0
:10231000AC5BBD4FFF2049F08C91822B8C93E75929
:10232000FD4F8081282B208304C020958C91282389
:102330002C93F801408151816281738184810E94D4
:102340001E0890916F02882321F09F5F90936F0287
:102350007DC4915090936F0219160CF477C41092BB
:102360006F028091650290916602A0916702B09120
:1023700068028F309105A105B10539F4909164028E
:1023800081E08927809364026BC083309105A105A9
:10239000F0E3BF0711F580916302823031F01092B3
:1023A00062028093610282E02BC08091610280937F
:1023B00063020DE412E08091620290E098012D54D6
:1023C00032402817390734F4F80181918F010E94B7
:1023D000291BF1CF0E94A11A43C083339105A105A7
:1023E000B10521F481E00E9453183AC020916302A4
:1023F00081309105A105B10549F4211104C081E0A6
:10240000809363022DC0109263022AC0213089F4A8
:1024100080FF0FC010924C0210924B0210924A02A1
:102420001092650210926602109267021092680282
:102430001BC03FEF320F323040F083709927AA273C
:10244000BB27892B8A2B8B2B11F080E007C0211131
:10245000E1CF809164028823E9F281E00E94910A31
:102460000E94180D882359F180917603882371F01A
:10247000813029F58091690280688093690299E62C
:10248000E92E92E0F92E16E01E0D12C029E6E22E8A
:1024900022E0F22E14E01E0DF70181917F018111DF
:1024A0000E94E0241E11F8CF80E00E94E02407C0C3
:1024B000F70181917F010E94E0241E11F9CF0E9453
:1024C000FC07C4C3F8018281F7EDEF16FCE5FF06B7
:1024D00009F4E1C0E8F495E1E9169CE5F90688F411
:1024E000E2E0EE16ECE5FE0608F081C0E114FCE542
:1024F000FF0679F121E0E2162CE5F20609F45BC053
:102500004BC196E1E9169CE5F90609F423C144C1E3
:10251000ECEDEE16ECE5FE0609F45CC068F428ED7F
:10252000E2162CE5F20609F4D7C099EDE9169CE510
:10253000F90609F4F6C030C1EDEDEE16ECE5FE0645
:1025400009F44EC0FEEDEF16FCE5FF0609F43CC0B1
:1025500023C1882309F47AC30E94A11A2FEF84E3D0
:102560009CE0215080409040E1F700C0000081E0F5
:102570008093E00080E28093D8001092C900EFE1E0
:10258000FEE43197F1F700C0000087E090EBDC013A
:1025900080939B0390939C03A0939D03B0939E0311
:1025A0009CE088E10FB6F894A895809360000FBE78
:1025B00090936000FFCF882309F448C380918B0378
:1025C000816080938B0342C3882309F43FC30E9438
:1025D000D4163CC3882309F439C310922F0336C3A1
:1025E000882309F433C382E080932F032FC3882309
:1025F00009F4D7C00E94C916811102C00E94D416E6
:1026000084E090E00E94492690E0909378038093C4
:102610007703F701E350FC45E231F10530F4ED5565
:10262000FF4F809177030C94972680917703816008
:1026300027C0826025C0846023C0806121C0806281
:102640001FC080641DC080681BC08460886018C083
:102650008E7F16C08D7F14C08B7F12C08F7E10C0FE
:102660008F7D0EC08F7B0CC08F770AC08B7F877FDA
:1026700007C087FB222720F991E0922790FB87F97A
:10268000809377036091770384E090E00E9457265F
:102690000E94A11ADBC2882351F0109275020E9499
:1026A0003116909372028093710282E020C0809173
:1026B000750281110FC080917102909172020E9487
:1026C0004225883C910530F486E20E94291B86E26F
:1026D0000E94CD1A82E022C0882361F01092760217
:1026E0000E943116909374028093730280E20E94DC
:1026F000C31AACC28091760281110FC0809173021F
:10270000909174020E944225883C910530F487E242
:102710000E94291B87E20E94CD1A80E20E94B81A0B
:1027200095C28111DBCF809176028111F6CF809125
:102730007302909174020E944225883C910568F7CB
:1027400080E20E94B81A88E20E94291B88E20E9457
:10275000CD1A7CC29091F802882381F09A7A81E0A8
:1027600009F480E080937002811102C069E201C027
:1027700065E387E792E00E9491160BC0809170029A
:10278000811102C069E201C065E387E792E00E941F
:1027900066160E9426175AC281E0809375028093C4
:1027A0007602F8018281C080D180882349F0C60179
:1027B0000E945817F82E682FC6010E94F61704C011
:1027C000C6010E94CB17F82EB6018F2D0E943D083E
:1027D000B82E482FF801358132953F7022812111A2
:1027E0001092F702092F02950F7010E00C301105BE
:1027F00008F017C2F801EB54FF4F0C949726892F6D
:10280000807F9F70F92E882319F0F29480EFF822D0
:102810002223B9F0FF2009F4F0C180E28B0D88304B
:1028200010F0411106C09091F8029F299093F80290
:1028300005C09091F7029F299093F7020E942617F6
:10284000DCC18B2D49830E94CD1A4981FF2009F4F8
:10285000E8C180E28B0DF094883010F0411106C081
:102860009091F8029F219093F80205C09091F70291
:102870009F219093F7020E942617D3C1592F507FB2
:10288000892F8F70503211F08295807F413051F442
:10289000222321F0333008F0C4C153C1323008F094
:1028A000C0C155C1222321F0332309F44AC1A5C177
:1028B000332309F44CC1B2C1492F46954695437064
:1028C00050E04115510521F041305105A1F0A9C159
:1028D000222319F08B2D937002C080E090E00F90BE
:1028E000DF91CF911F910F91FF90EF90DF90CF90EC
:1028F000BF900C94DA07222319F08B2D937002C03D
:1029000080E090E00F90DF91CF911F910F91FF90A9
:10291000EF90DF90CF90BF900C94C407892F837005
:1029200009F077C0211186C18B2D8295869587701D
:10293000880F880F4B2D4F7050E060E070E06A0107
:102940007B01082E04C0CC0CDD1CEE1CFF1C0A947D
:10295000D2F7B4FE12C00FE010E020E030E004C077
:10296000000F111F221F331F8A95D2F7B901A8014A
:10297000409550956095709503C040E050E0BA01D5
:10298000969596959370892F90E00091F902109199
:10299000FA022091FB023091FC0282309105A9F0ED
:1029A00083309105E9F0019759F04C295D296E2992
:1029B0007F29CB01BA01602371238223932326C090
:1029C000C02AD12AE22AF32A1BC04C295D296E298C
:1029D0007F29CB01BA01602771278227932716C070
:1029E000CB01BA0160237123822393230E947418C0
:1029F0004091F9025091FA026091FB027091FC0241
:102A0000CB01BA016C297D298E299F290E94741857
:102A100011C1222319F0892F817001C08695882366
:102A200009F408C18B2D829586958770880F880FD1
:102A30004B2D4F7050E060E070E06A017B01082E82
:102A400004C0CC0CDD1CEE1CFF1C0A94D2F7B4FEB3
:102A500012C00FE010E020E030E004C0000F111FB2
:102A6000221F331F8A95D2F7B901A80140955095CE
:102A70006095709503C040E050E0BA019695969538
:102A80009370892F90E00091F2021091F30220914F
:102A9000F4023091F50282309105A9F0833091055E
:102AA000E9F0019759F04C295D296E297F29CB0166
:102AB000BA01602371238223932326C0C02AD12A1E
:102AC000E22AF32A1BC04C295D296E297F29CB01FC
:102AD000BA01602771278227932716C0CB01BA015C
:102AE00060237123822393230E9424184091F202D1
:102AF0005091F3026091F4027091F502CB01BA019A
:102B00006C297D298E299F290E94241893C08B2D22
:102B1000403F01F118F4403E50F46BC0423F09F4CD
:102B200049C008F440C0433F09F44BC062C0FB2DCC
:102B3000FF70FF2E892F8F71222331F00E945318CE
:102B40008F2D0E94C31A6DC00E942E188F2D0E94D7
:102B5000B81A67C0222319F1323008F062C0292F59
:102B60002F7181E090E0A0E0B0E0AC01BD0104C0B5
:102B7000440F551F661F771F2A95D2F78091F202E6
:102B80009091F302A091F402B091F5026A017B01E9
:102B9000C826D926EA26FB26C701B60127C033304E
:102BA00008F03FC0DCCF222339F0892F8F710E94BB
:102BB000531837C02223C9F3892F8F710E942E1812
:102BC00030C0222381F0292F2F7181E090E0A0E016
:102BD000B0E0BC01CD0104C0660F771F881F991FAC
:102BE0002A95D2F703C060E070E0CB010E94241860
:102BF00018C0222331F03323C1F28B2D0E94291BF0
:102C000010C03323C9F2893349F42FEF87EE93E0E4
:102C1000215080409040E1F700C000008B2D0E94C1
:102C2000CD1A0830110531F08CF00A50110902302C
:102C3000110560F40F90DF91CF911F910F91FF90DC
:102C4000EF90DF90CF90BF900C94F0070F90DF9142
:102C5000CF911F910F91FF90EF90DF90CF90BF9099
:102C600008952FB7F89480912B0390912C03A09195
:102C70002D03B0912E032FBF08951F920F920FB610
:102C80000F9211248F939F93AF93BF9380917B03F7
:102C9000811113C080912B0390912C03A0912D03DF
:102CA000B0912E034196A11DB11D80932B039093EB
:102CB0002C03A0932D03B0932E03BF91AF919F914E
:102CC0008F910F900FBE0F901F90189520910001CB
:102CD000222321F02091770327FD04C0FC013396C5
:102CE000099619C0262F2695269526952E31C0F4D3
:102CF000FC01E20FF11D677081E090E001C0880FD8
:102D00006A95EAF7809592818923828308953196A6
:102D1000E817F90729F020812613F9CF1082F7CFA1
:102D2000089520910001222321F02091770327FDAF
:102D300005C0FC0133962FEF30E019C0262F2695F1
:102D4000269526952E3120F5FC01E20FF11D6770C6
:102D500081E090E001C0880F6A95EAF79281892BA3
:102D6000828308952F3F39F03F5F363041F0419123
:102D70004613F8CF0DC04111F7CF232FF5CF2F3FCA
:102D800039F0FC01E20FF11D27FDFA9563830895E8
:102D9000089580E090E00E94512621E08D3E9E4FF4
:102DA00009F020E0822F08956DEE7EEF80E090E044
:102DB0000E94752660E082E090E00E94572660E065
:102DC00083E090E00E9457261092F9021092FA02D6
:102DD0001092FB021092FC0260E084E090E00E94FE
:102DE000572660E085E090E00E94572660E086E08C
:102DF00090E00E9457266FEF87E090E00E945726F0
:102E000040E050E0BA0188E090E00E94692660E06E
:102E10008DE090E00E94572640E050E0BA0188E142
:102E200090E00E94692660E087E190E00E945726CA
:102E300040E050E0BA018FE090E00E94692640E057
:102E400050E0BA0183E190E00C9469269091F7027A
:102E50008091F802892B9091F602892B8093780259
:102E6000E0917903F0917A03309799F08091000115
:102E7000882331F08091770387FF02C085E001C08D
:102E800081E0809377020280F381E02D87E792E072
:102E9000099408951092F7021092F6020E942617E4
:102EA00080E090E00E94DA0780E090E00C94C40794
:102EB000BF92CF92DF92EF92FF920F931F93CF9327
:102EC000DF938C01C090F902D090FA02E090FB02EF
:102ED000F090FC028091F2029091F302A091F40232
:102EE000B091F502C82AD92AEA2AFB2ACFE1D0E01C
:102EF000D701C6010C2E04C0B695A7959795879566
:102F00000A94D2F780FF07C0BC2EB8018C2F0E9414
:102F10003D08019719F4219758F7B12C8B2DDF91BB
:102F2000CF911F910F91FF90EF90DF90CF90BF90C6
:102F30000895CF93DF93EC010E945817BE010E94C1
:102F40003D08DF91CF9108950E949917292F2F7086
:102F500092959F70E92FF0E03297EE30F105B8F4CA
:102F6000EF53FF4F0C949726803F99F018F4803E62
:102F700070F40FC0843F59F40CC0803E50F0813F84
:102F800031F407C0822F869586958695089580E056
:102F9000089581E00895990F990F890F682F66951C
:102FA00066956695982F977085E0689FB00111240B
:102FB00040E050E080E0FA01E60FF71FE153FD4FDB
:102FC000208130E0092E02C0369527950A94E2F759
:102FD00021703327042E01C0220F0A94EAF7822BB6
:102FE0004F5F5F4F4530510531F70895990F990FA5
:102FF000890FA82FA695A695A695877051E001C0C8
:10300000550F8A95EAF785E0A89FD001112420E0AA
:1030100030E070E0F901EA0FFB1FE153FD4F408102
:10302000CB01022E02C0969587950A94E2F7817033
:103030009927819584278523842780832F5F3F4F9D
:103040002530310539F708956093F2027093F30249
:103050008093F4029093F5020C944A170F931F93F8
:1030600041E050E060E070E004C0440F551F661F6F
:10307000771F8A95D2F7409550956095709580910D
:10308000F2029091F302A091F402B091F5028A014C
:103090009B01082319232A233B23C901B8011F914F
:1030A0000F910C9424180F931F9341E050E060E0BF
:1030B00070E004C0440F551F661F771F8A95D2F732
:1030C0008091F2029091F302A091F402B091F50286
:1030D0008A019B01082B192B2A2B3B2BC901B80114
:1030E0001F910F910C9424186093F9027093FA02C7
:1030F0008093FB029093FC020C944A178091CE02BD
:1031000090919D02891719F08F5F8770FBCF08950A
:1031100080919C0282958F7009F054C08091990231
:10312000882309F44FC08091CE02A0919D02609146
:1031300097027091980240919A0250919B02B6E0DA
:103140008A1709F43FC090E041155105C1F17F3F56
:1031500011F46F3FA1F1B89FF001B99FF00D112458
:10316000E256FD4F218172132AC02081621327C0CD
:103170002281211124C0238134812417350710F4C2
:1031800021503109241B350B283C3105C0F4209116
:103190009C022F70206120939C0226E0289FF00162
:1031A000299FF00D1124ED55FD4F80818F708061B6
:1031B000808387E992E00E940E100C947E1801969D
:1031C0008770BECF0895BF92CF92DF92EF92FF92A9
:1031D0000F931F93CF93DF93CDB7DEB761970FB6F1
:1031E000F894DEBF0FBECDBF8C0185E0F801DE0193
:1031F0001D9601900D928A95E1F7D8013C911196A8
:103200002C9111971296EC9012971396CD90DC901A
:103210001497509197026091980280919A02909130
:103220009B02009709F44FC16F3F19F45F3F09F407
:103230004AC1B0909902BB2009F4ECC040919C02B5
:10324000C816D90628F0F601E81BF90BCF0104C017
:10325000809590958C0D9D1DFF24F394883C9105DD
:1032600048F0F12C407F09F09FC087E992E00E946E
:103270000E1021C1842F807F09F044C0621312C058
:10328000531310C0E1100EC04F70406140939C0278
:1032900087E992E00E940E1080919C02D801159659
:1032A0008C932EC0CD2819F12F3F11F43F3FF9F038
:1032B000FE2CE1101CC08091CE0240919D0256E090
:1032C000841709F458C090E0589FF001599FF00D01
:1032D0001124E256FD4F6181261306C0608136132A
:1032E00003C06281611103C001968770E9CFFE2C93
:1032F000EE2009F415C180919C02816080939C02AC
:10330000F12C0EC162130AC0531308C0E11006C0AD
:1033100080919C02D80115968C93B0C03D872E8772
:103320008D859E850E94A4178823D1F1EE20C1F1DE
:1033300020919C02822F82958F7090E0029774F00A
:10334000809197029091980298878F831986DB86E7
:10335000CA862C87CE0107960E940E1086E0F801DF
:10336000A7E9B2E001900D928A95E1F70E948818D2
:10337000FF24F394D5C03D872E878D859E850E94BE
:103380009917292F22952F7030E0223031050CF04B
:10339000BBC09F7009F0B5C0805E883008F4C0C023
:1033A000C8010E940E10E4CF621314C0531312C060
:1033B000E11010C080919C02F8018583C8010E9431
:1033C0000E1086E0E7E9F2E0DF011D928A95E9F749
:1033D000FB2CA6C03D872E878D859E850E94A41755
:1033E0008823F1F2EE20E1F220919C02822F829557
:1033F0008F7090E002970CF4B1CF8091970290917A
:1034000098029A8389831B82DD82CC822E83CE012F
:103410000196A2CFC816D90638F0C81AD90AB8EC56
:10342000CB16D10450F007C0809590958C0D9D1D52
:10343000883C910510F0F12C3EC0FE2CEE2009F4E2
:10344000AFCF621327C0531325C020919C0220FDEB
:1034500018C0822F82958F70482F50E0411551057A
:1034600081F0F80125834F30510541F08F5F982F8F
:103470009295907F822F8F70892B8583C8010E943F
:103480000E1086E0F801A7E9B2E001900D928A954E
:10349000E1F746C03D872E878D859E850E94A41743
:1034A00081115CCF80919C02816080939C02C80155
:1034B0000E940E1035C0E7E9F2E086E0DF011D92C0
:1034C0008A95E9F72DC0EE2009F46ACF3D872E8753
:1034D0008D859E850E94A417F82E882309F460CF5D
:1034E00086E0F801A7E9B2E001900D928A95E1F734
:1034F00080919702909198020E9499170E948818D3
:103500000FC0811149CF0CC0243031050CF048CFD9
:103510009F7009F441CFF8019581907F09F03CCF6D
:103520008F2D61960FB6F894DEBF0FBECDBFDF9131
:10353000CF911F910F91FF90EF90DF90CF90BF90B0
:1035400008951092F80280910001882341F0809143
:10355000770387FF04C08EE1E9E7F2E003C086E06D
:10356000EAE7F2E0DF011D928A95E9F70C944A1729
:10357000882341F080959091F80289238093F80286
:103580000C9426170895882339F09091F802892B1E
:103590008093F8020C9426170895882309F458C0E4
:1035A000682F823869F40E94F00781FF51C069E3F7
:1035B00087E792E00E9491160E94261769E30EC0E9
:1035C000833891F40E94F00780FF42C063E587E7EB
:1035D00092E00E9491160E94261763E587E792E029
:1035E0000E9466160C942617843869F40E94F0072E
:1035F00082FF2EC067E487E792E00E9491160E9446
:10360000261767E4EBCF8CEF860F813A38F380E220
:10361000860F883070F4677081E090E001C0880FF9
:103620006A95EAF780959091F80289238093F802D1
:10363000D9CF8BE5860F833020F480E090E00C94A6
:10364000DA07685A673120F480E090E00C94C407F0
:103650000895882309F40DC1682F8238B1F40E94BF
:10366000F00781FD06C169E387E792E00E949116A9
:103670000E9426172FEF81EE94E021508040904069
:10368000E1F700C0000069E317C08338D9F40E9455
:10369000F00780FDEEC063E587E792E00E94911697
:1036A0000E9426172FEF81EE94E021508040904039
:1036B000E1F700C0000063E587E792E00E9466162C
:1036C0000C9426178438B1F40E94F00782FDD1C013
:1036D00067E487E792E00E9491160E9426172FEF79
:1036E00081EE94E0215080409040E1F700C000005E
:1036F00067E4E2CF8CEF860F813A28F487E792E007
:103700000E949116DDCF80E2860F883068F46770E2
:1037100081E090E001C0880F6A95EAF79091F80285
:10372000892B8093F802CCCF8BE5860F833070F421
:10373000653A29F0663A31F083E890E005C081E807
:1037400090E002C082E890E00C94DA0788E5860FEA
:10375000873108F08EC0683A09F445C0693A09F427
:1037600045C06A3A09F445C06B3A09F445C06C3A61
:1037700009F445C06B3B09F445C06C3B09F445C0F6
:103780006D3A09F445C0603B09F445C06E3A09F44E
:1037900045C06F3A09F445C0613B09F445C0623B3E
:1037A00009F445C0633B09F445C0643B09F445C0D6
:1037B000653B09F445C0663B09F445C0673B09F425
:1037C00045C0683B09F445C0693B09F445C06D3B01
:1037D00009F445C06E3B09F445C06A3B09F445C095
:1037E00080E090E044C082EE90E041C089EE90E03D
:1037F0003EC08AEE90E03BC085EB90E038C086EB9F
:1038000090E035C083EB90E032C084EB90E02FC0B5
:1038100087EB90E02CC08CEC90E029C08DEC90E020
:1038200026C083E891E023C08AE891E020C082E9C5
:1038300091E01DC084E991E01AC081E292E017C0D6
:1038400083E292E014C084E292E011C085E292E04B
:103850000EC086E292E00BC087E292E008C08FE6DD
:1038600090E005C080E790E002C08AE292E00C940C
:10387000C40708950F931F93CF93DF93CDB7DEB79F
:10388000AA970FB6F894DEBF0FBECDBF80919A0302
:10389000882309F473C31091E9001F709091EC0024
:1038A000892F817090FD80E8182B1092E90080919B
:1038B000E80083FF50C3E3E2F3E088E08E0F9091CD
:1038C000F10091938E13FBCF80912403833009F490
:1038D00060C030F4813071F0823009F49AC0B1C018
:1038E0008A3009F486C08B3009F46BC0893009F046
:1038F000A8C020C080912303813A09F0A2C0809122
:10390000E800877F8093E800809127039091280347
:10391000892B21F460E280E093E003C060E080E066
:1039200090E070E00E9468228091E8008B7780939D
:10393000E80087C080912303813209F082C0809122
:10394000270390912803892B09F07BC08091E80020
:10395000877F8093E8008091E80082FD05C0809118
:103960009A038111F8CF17C12091F3008091F200E2
:1039700090E0922B029729F48091F1008B7F8130A7
:1039800021F48091F1008093FF028091E8008B7711
:1039900054C080912303813A09F053C080912703DA
:1039A00090912803892B09F04CC08091E800877F13
:1039B0008093E8008091E80080FFFCCF80910001B7
:1039C00037C0809123038132E1F5809127039091E4
:1039D0002803892BB1F58091E800877F8093E80068
:1039E0000E94142280912503809300010E94A11A55
:1039F00028C080912303813221F58091E800877FE0
:103A00008093E8000E941422809126038093FE0296
:103A100018C080912303813AA1F48091E800877F48
:103A20008093E8008091E80080FFFCCF8091FE0247
:103A30008093F1008091E8008E778093E8000E94E7
:103A400014228091E80083FFA6C080910D0190E0D0
:103A500020912703309128032817390709F09BC0CC
:103A600080912403813261F020F4803209F441C056
:103A700092C0823209F470C0833209F481C08BC0D5
:103A800080912303813A09F086C08091E800877F06
:103A90008093E8008091E80080FFFCCF80912101B5
:103AA00090912201A0912301B09124018093F10013
:103AB000492F5A2F6B2F77274093F100AD016627CE
:103AC00077274093F1008B2F9927AA27BB27809354
:103AD000F100809125018093F1008091260180936F
:103AE000F100809127018093F1008091E8008E77AA
:103AF0004EC080912303813209F04DC08091E800CF
:103B0000877F8093E8008091E80082FD05C0809166
:103B10009A038111F8CF3FC03091F1002091F1005C
:103B20009091F1008091F1003093210120932201C6
:103B300090932301809324018091F10080932501CB
:103B40008091F100809326018091F10080932701FC
:103B50008091E8008B771BC0809123038132D9F4D8
:103B60008091E800877F8093E8000E941422809172
:103B700025039091260390931E0180931D010BC095
:103B800080912303813239F48091E800877F80930C
:103B9000E8000E9414228091E80083FFCEC180914A
:103BA000230390912403492F50E04A30510508F037
:103BB000C4C1FA01E153FF4F0C949726803821F0DD
:103BC000823809F0BAC108C0809120039091210386
:103BD000992389F082600FC0809127038F7087300E
:103BE00008F0ABC18093E9008091EB0085FB88274A
:103BF00080F91092E9009091E800977F9093E80097
:103C00008093F1001092F10062C1282F2D7F09F0FE
:103C100094C1882319F0823061F08FC1809125030F
:103C2000813009F08AC1933009F080E0809321034C
:103C30002EC08091250381112AC0809127038F70A7
:103C40002FEF280F263008F078C18093E9002091EB
:103C5000EB0020FF1CC0933021F48091EB008062C8
:103C600014C09091EB0090619093EB0021E030E064
:103C7000A90102C0440F551F8A95E2F74093EA005C
:103C80001092EA008091EB0088608093EB00109224
:103C9000E9008091E800877F1DC181114EC100912C
:103CA00025030F778091E3008078802B8093E300D9
:103CB0008091E800877F8093E8000E941422809121
:103CC000E80080FFFCCF8091E30080688093E300F0
:103CD000011102C082E001C083E080939A032DC1EC
:103CE0008058823008F029C18091250390912603E5
:103CF0008C3D53E0950779F583E08A838AE28983D6
:103D00004FB7F894DE01139620E03EE051E2E32F36
:103D1000F0E050935700E49120FF03C0E295EF706C
:103D20003F5FEF708E2F90E0EA3010F0C79601C031
:103D3000C0968D939D932F5F243149F74FBF80919B
:103D4000E800877F8093E8006AE270E0CE01019688
:103D50000E946822AAC04091270350912803292F6E
:103D6000332723303105B1F06CF42130310509F4EB
:103D7000F6C02230310509F0E0C08FE590E0E3EABB
:103D8000F4E041C02132310599F12232310509F4C4
:103D900033C0D3C0992781309105D1F05CF4892BD1
:103DA00009F0CBC0E2E5F5E0E4918E2F90E0E2E58A
:103DB000F5E026C08230910599F0039709F0BDC067
:103DC000E4E1F5E0E4918E2F90E0E4E1F5E018C045
:103DD000EAE2F5E0E4918E2F90E0EAE2F5E010C02F
:103DE000EAE1F5E0E4918E2F90E0EAE1F5E008C029
:103DF000452B09F4B9C0A1C0452B09F4BAC09DC038
:103E0000009709F49AC02091E800277F2093E800EA
:103E10002091290330912A032817390708F4C90192
:103E200040E0009789F120919A03222309F43DC0D4
:103E30002530D9F12091E80023FD37C02091E8001A
:103E400022FD2FC02091E80020FFEBCF4091F3002E
:103E50002091F20030E0342B009759F028303105E2
:103E600040F444914093F100319601972F5F3F4F0A
:103E7000F3CF41E02830310509F040E02091E8001F
:103E80002E772093E800CDCF4111CDCF0AC080918D
:103E90009A03882351F0853041F08091E80083FD3A
:103EA00004C08091E80082FFF2CF8091E8008B7718
:103EB0008093E80042C0803809F03FC08091E8005C
:103EC000877F8093E800809122038093F1008091A6
:103ED000E8008E778093E8000E9414222EC08111A2
:103EE0002CC000912503023040F58091E800877FC7
:103EF0008093E800009322030E941422011106C05F
:103F00008091E30087FD02C081E001C084E08093DE
:103F10009A0342E261EC81E00E94332242E061ECCC
:103F200082E00E94332242E160E884E00E94332272
:103F300042E161E883E00E9433228091E80083FF40
:103F40000AC08091E800877F8093E8008091EB00B1
:103F500080628093EB001F701093E9000FC082E134
:103F600090E0E2E0F5E04FCF89E090E0E5EBF4E0AF
:103F70004ACF83EB90E0E0EFF3E045CFAA960FB68F
:103F8000F894DEBF0FBECDBFDF91CF911F910F918F
:103F90000895E8EDF0E080818E7F80831092E2004A
:103FA0001092DA001092E100A0EEB0E08C918160F6
:103FB0008C9380818F77808319BCA7EDB0E08C91C2
:103FC0008E7F8C9380818F7E80831092FD02089576
:103FD000CF92DF92EF92FF920F931F93CF93DF93D5
:103FE000C8EDD0E088818F7E8883E7EDF0E08081A6
:103FF0008160808384E082BF81E08093FD028881BC
:104000008E7F888302EE10E0F80110821092DA00B1
:1040100081EEC82ED12CF601108288818F7788839B
:1040200088818068888388818F7D888319BC1092FD
:104030009A0310922203109221031092200390EE13
:10404000E92EF12CF70180818B7F8083888181604C
:10405000888342E060E080E00E943322F6018081A4
:104060008E7F8083F8018081816080838081886079
:104070008083F70180818E7F80838881806188833F
:10408000DF91CF911F910F91FF90EF90DF90CF9034
:1040900008951F920F920FB60F9211242F933F9302
:1040A0004F935F936F937F938F939F93AF93BF9340
:1040B000EF93FF938091E10082FF09C08091E200BD
:1040C00082FF05C08091E1008B7F8093E1008091A9
:1040D000DA0080FF2AC08091D80080FF26C080913E
:1040E000DA008E7F8093DA008091D90080FF18C0BB
:1040F00080E189BD82E189BD09B400FEFDCF81E088
:1041000080939A038091FD0281110FC00E94C91F04
:104110000E94E81F8091E20084608093E20005C065
:1041200019BC10929A031092FD028091E10080FF69
:1041300017C08091E20080FF13C08091E2008E7F63
:104140008093E2008091E20080618093E2008091A0
:10415000D80080628093D80019BC85E080939A03D0
:104160008091E10084FF32C08091E20084FF2EC084
:1041700080E189BD82E189BD09B400FEFDCF809157
:10418000D8008F7D8093D8008091E1008F7E80934E
:10419000E1008091E2008F7E8093E2008091E20056
:1041A00081608093E20080912203882311F084E0F3
:1041B00007C08091E30087FD02C081E001C083E079
:1041C00080939A030E94A11A0E94F0078091E10057
:1041D00083FF22C08091E20083FF1EC08091E10036
:1041E000877F8093E10082E080939A0310922203FC
:1041F0008091E1008E7F8093E1008091E2008E7FCC
:104200008093E2008091E20080618093E20042E0CE
:1042100060E080E00E943322FF91EF91BF91AF9167
:104220009F918F917F916F915F914F913F912F91CE
:104230000F900FBE0F901F9018952091E4003091C1
:10424000E50095E64091EC00842F817040FF22C08C
:104250008091E80080FD1CC080919A03882391F032
:10426000853091F08091EB0085FD10C04091E40015
:104270005091E5004217530729F39A01915011F725
:1042800084E0089582E0089583E0089581E0089530
:1042900080E008954091E80042FFDECF0895089540
:1042A0008091FF020895CF93DF9300D01F92CDB786
:1042B000DEB79C0190912F03911105C080919A0364
:1042C000843049F504C0923011F0943021F584E037
:1042D00089833B832A8381E08093E9008FEF90916B
:1042E000E800815095FD06C095ED9A95F1F7000024
:1042F0008111F5CF8091E80085FF0DC040E050E0CE
:1043000063E070E0CE0101960E9410268091E800E3
:104310008E778093E8000F900F900F90DF91CF91F0
:104320000895CF93DF9300D01F92CDB7DEB72091D1
:104330009A03243031F523E02983805891099B8327
:104340008A8381E08093E9008FEF9091E8008150AB
:1043500095FD06C095ED9A95F1F700008111F5CF16
:104360008091E80085FF0DC040E050E063E070E020
:10437000CE0101960E9410268091E8008E778093EE
:10438000E8000F900F900F90DF91CF910895CF9399
:10439000DF9320912F03211103C020919A0302C0C3
:1043A000223011F02430E9F520910001222331F070
:1043B0002091770327FF02C060E201C069E021E09D
:1043C0002093E9002FEF3091E800215035FD06C021
:1043D00035ED3A95F1F700002111F5CF2091E80075
:1043E00025FF1FC0EC0180910001811107C040E052
:1043F00050E068E070E0CE01019604C070E040E05B
:1044000050E0CE010E9410268091E8008E778093C4
:10441000E80080E2FE01A0E0B3E001900D928A95F1
:10442000E1F7DF91CF9108958091230387FF11C0B9
:104430008091E80082FD05C080919A038111F8CF38
:1044400011C08091E8008B770BC080919A0388237C
:1044500049F08091E80080FFF8CF8091E8008E77E6
:104460008093E8000895982F973058F59093E900CD
:10447000981739F07091EC002091ED005091F00008
:1044800003C0242F762F50E021FF19C03091EB009C
:104490003E7F3093EB003091ED003D7F3093ED0097
:1044A0003091EB0031603093EB007093EC0020937F
:1044B000ED005093F0002091EE0027FF07C09F5FB2
:1044C000D3CF8F708093E90081E0089580E0089554
:1044D0002091290330912A032617370748F06115E8
:1044E000710539F42091E8002E772093E80001C08F
:1044F000B90140E061157105A9F120919A032223C9
:1045000009F443C0253009F442C02091E80023FD9E
:1045100040C02091E80022FD32C02091E80020FF39
:10452000E9CF4091F3002091F20030E0342BFC0100
:10453000CF016115710559F02830310540F48191A2
:104540008093F100615071092F5F3F4FF1CF41E03F
:104550002830310509F040E02091E8002E772093C3
:10456000E800C8CF4111C9CF0AC080919A038823BF
:1045700061F0853061F08091E80083FD0AC0809190
:10458000E80082FFF2CF80E0089582E0089583E0A2
:10459000089581E00895CF93DF93CDB7DEB72D97CF
:1045A0000FB6F894DEBF0FBECDBF84B7877F84BF40
:1045B0000FB6F894A89580916000886180936000A0
:1045C000109260000FBE80E880936100109261003D
:1045D00085B7806885BF85B7806885BF0E94C91F81
:1045E0000E94E81F8091E20084608093E20078944A
:1045F0000E943A1C82E084BD93E095BD9AEF97BD7E
:1046000080936E000E941A0F90E0909302018093B5
:1046100001010E94850F0E94940FA8E6B3E02CE7E9
:1046200033E080E090E0F90111929F011D92FC01BE
:10463000E05DFC4F1082118212821382049688334F
:10464000910589F70E94C916811102C00E94D416F3
:1046500081E00E940B083F988AB18F708AB96E98EA
:10466000479A8BB1806F8BB9769A0E94C9168111D7
:1046700002C00E94D41682E090E00E9449268093F6
:104680008B0384E090E00E94492690E090937803A9
:104690008093770383E090E00E944926682F70E0C2
:1046A00080E090E00E9474180E94C916811102C037
:1046B0000E94D4168DE090E00E94492680937603F4
:1046C0008091770380688093770383E091E09093F3
:1046D0007A038093790382E090E0909320018093A5
:1046E0001F0180919A03843079F580912101909186
:1046F0002201A0912301B0912401892B8A2B8B2BBD
:1047000019F1809118018F708093E90088E0E8E248
:10471000F1E0DE01119601900D928A95E1F740E0FB
:1047200050E068E070E0CE0101960E94102640E063
:1047300050E062E070E08FE191E00E9410268091ED
:10474000E8008E778093E800EE24EA94CC24C394AA
:10475000D12C8CE793E09EE0F92EF80E20E1822E1A
:1047600032E1532E48E1A42EB12C50E4952E8091D5
:104770009A03853009F043C080919A03843009F18F
:1047800010927B030FB6F894A895A09260000FBE1C
:104790009092600083B7817F846083BF83B781601C
:1047A00083BF7894889583B78E7F83BF0FB6F894C4
:1047B000A8958091600088618093600010926000ED
:1047C0000FBE80912103882391F20E941A0F90E07E
:1047D00090930201809301010E94850F0E94940F23
:1047E000ECE7F3E01192FE12FDCF0E949B0FECE785
:1047F000F3E081918111D0C0FE12FBCFB8CF0E94AF
:104800009B0FECE8F3E0ACE7B3E000E010E0702FC2
:104810006D9121912627B1F180E090E030E0782E73
:10482000A901082E02C0559547950A94E2F740FF6A
:1048300025C089837A83C60102C0880F991F7A94A4
:10484000E2F73C01862F90E08621972121E0892B19
:1048500009F420E02B830E9431168160782F9D831C
:104860008C8349815A816B818D810E942F07F801C9
:10487000E457FC4F80816826608219C0019684301D
:10488000910569F60F5F1F4F0E30110509F0BFCF7C
:10489000E986EA861B860E9431168160782F9D8703
:1048A0008C8749855A856B858D850E942F071091CD
:1048B0008A030E94F007181721F00E94F0078093E6
:1048C0008A0380919A03843009F046C080912101C7
:1048D00090912201A0912301B0912401892B8A2B70
:1048E0008B2BD1F1209113012F702093E90080913F
:1048F000E80082FF31C03091F3008091F20090E037
:10490000932B892B21F13091F3008091F20090E0FC
:10491000932B892B09F180919A038430E9F4209339
:10492000E9008091E80082FF17C02091F300809198
:10493000F20090E0922B892B11F08091F1002091F0
:10494000F3008091F20090E0922B892B29F4809162
:10495000E8008B778093E80080919A038430C9F453
:104960008091210190912201A0912301B091240115
:10497000892B8A2B8B2B69F080910E018F7080938D
:10498000E9008091E80080FF04C08DE091E00E9482
:10499000DD250E943A1CEBCE89BC59BC09B400FE4F
:1049A000FDCF8091D8008F7D8093D8008091E0006A
:1049B00082608093E0008091E00081FDFCCFD7CE43
:1049C000CF93C091E9002091EC00922F917020FDCF
:1049D00090E820911D0120FF2DC0CF70C92B909130
:1049E0000E019F709093E9009091EB0090FF1FC023
:1049F0009091EE0097FF1BC09FEF2091E80091502F
:104A000025FD06C025ED2A95F1F700009111F5CF9F
:104A10008093F1008DE091E00E94DD258091E80017
:104A200080FF05C08091E8008E778093E800CF700A
:104A3000C093E900CF91089578941F920F920FB61A
:104A40000F9211248F939F93AF93BF9380912B0369
:104A500090912C03A0912D03B0912E030196A11DDE
:104A6000B11D80932B0390932C03A0932D03B0933F
:104A70002E03BF91AF919F918F910F900FBE0F901A
:104A80001F901895CF92DF92EF92FF920F931F9392
:104A90002FB7F89440912B0350912C0360912D0374
:104AA00070912E032FBF6A017B01EE24FF248C013D
:104AB00020E030E0C016D106E206F30610F44150C3
:104AC00051099A01281B390BC9011F910F91FF90C1
:104AD000EF90DF90CF9008950F931F93CF93DF93C4
:104AE000C82F1092BC0084EA8093BC000E9431164B
:104AF0008C019091BC0097FD0AC00E943116801B6A
:104B0000910B883E9340A8F38EEF9FEF2AC09091BF
:104B1000B900987F983041F09091B900987F90311A
:104B200019F08FEF9FEF1DC0C093BB0084E8809306
:104B3000BC000E943116EC019091BC0097FD08C0AA
:104B40000E9431168C1B9D0B883E9340A8F3DCCF4E
:104B50008091B900887F883111F0803411F780E0AE
:104B600090E0DF91CF911F910F910895CF93DF9344
:104B70008093BB0084E88093BC000E943116EC0156
:104B80009091BC0097FD0AC00E9431168C1B9D0BB2
:104B9000883E9340A8F38EEF9FEF0CC02091B900A0
:104BA000287F81E090E0283211F480E090E0919538
:104BB00081959109DF91CF91089580919A03843076
:104BC00069F58091210190912201A0912301B0917A
:104BD0002401892B8A2B8B2B09F180910E018F7078
:104BE0008093E9002091F3008091F20090E0922BF5
:104BF000892B91F09091E8008091E8008E77809366
:104C0000E80095FD09C00E941D21811108C0809116
:104C1000E8008E778093E80080E0089582E00895B0
:104C2000CF92DF92FF920F931F93CF93DF931F9248
:104C3000CDB7DEB7F82E8B0199830E941D21998193
:104C400081111EC0CF2CD92E01151105C1F0809104
:104C5000E80085FD0CC08091E8008E778093E80025
:104C60000E943A1C0E941D21882371F309C0F6019D
:104C700081916F018093F10001501109E5CF80E02F
:104C80000F90DF91CF911F910F91FF90DF90CF9008
:104C90000895F999FECF92BD81BDF89A992780B504
:104CA0000895A8E1B0E042E050E00C947D26262F64
:104CB000F999FECF92BD81BDF89A019700B4021612
:104CC00039F01FBA20BD0FB6F894FA9AF99A0FBEC0
:104CD00008950396272F0E9458260E945726252FB5
:104CE0000E945826242F0C9458260196272F0E94A4
:104CF00058260C945726DC01CB01FC01F999FECF14
:104D000006C0F2BDE1BDF89A319600B40D92415053
:104D10005040B8F70895991B79E004C0991F961781
:104D200008F0961B881F7A95C9F780950895EE0FB5
:0E4D3000FF1F0590F491E02D0994F894FFCF39
:104D3E000120005021C7214F2191215321018310C1
:104D4E0000000104100000018208000001000000B4
:104D5E000000000000000000A12000000000020082
:00000001FF
