:100000000C9499010C94E0010C94E0010C94E00133
:100010000C94E0010C94E0010C94E0010C94E001DC
:100020000C94E0010C94E0010C94991B0C94E001F9
:100030000C94B71E0C94E0010C94E0010C94E001C8
:100040000C94E0010C94E0010C94E0010C94E001AC
:100050000C94E0010C94911E0C94E0010C94E001CE
:100060000C94E0010C94E0010C94E0010C94E0018C
:100070000C94E0010C94E0010C94E0010C94E0017C
:100080000C94E0010C94E0010C94E0010C94E0016C
:100090000C94E0010C94E0010C94E0010C94E0015C
:1000A0000C94E0010C94E0010C94E0010000165A5D
:1000B000175A185A00001A5A1B5A015100001C5AAC
:1000C0001D5A195A00001E5A1F5A00000000205ADB
:1000D000215A00000000225A295A000000000000A6
:1000E000000000000000115A125A015A00000D5A77
:1000F0000E5A105A00000B5A0C5A0F5A0000095A97
:100100000A5A00000000075A085A00000000115067
:10011000155A000000000000000000000000FF5C15
:10012000005D035D0000055D065D01510000075D97
:10013000085D045D0000095D0A5D000000000B5DC4
:100140000C5D000000000D5D0E5D00000000000071
:10015000000000000000FD5CFE5C015D0000F95C39
:10016000FA5CFC5C0000F75CF85CFB5C0000F55C92
:10017000F65C00000000F35CF45C0000000010502E
:10018000F25C0000000000000000000000D0D0D0B1
:10019000D0D0D00101020408102041424448480058
:1001A0000000484850608182848890A0C1C2C4D0B9
:1001B000D0D0D0D0D0C80000000000000000000067
:1001C000000000000000000000000000050109061A
:1001D000A1018501050719E029E71500250195080A
:1001E000750181029501750881010508190129052C
:1001F0009505750191029501750391010507190097
:1002000029FF150026FF00950675088100C005012D
:100210000980A10185031601002603001A81002A26
:100220008300751095018100C0050C0901A10185AD
:1002300004160100269C021A01002A9C02751095E2
:10024000018100C005010906A1018505050719E026
:1002500029E7150025019508750181020508190196
:100260002905950575019102950175039101050711
:10027000190029EF1500250195F075018102C009CB
:10028000025F00030100A0FA09040000010301015C
:100290000009211101000122B3000705810320009C
:1002A0000A080B0102020201000904010001020216
:1002B00001000524001001042402020524060102A5
:1002C000070582030800FF09040200020A0000007B
:1002D000070504021000050705830210000512013E
:1002E0001001EF020108EDFE3713010001020301C6
:1002F0000403300000000E03470065006F00720029
:1003000067006900000026036700200048006500C0
:10031000610076007900200049006E0064007500DD
:10032000730074007200690065007300000004032C
:10033000090411241FBECFEFDAE0DEBFCDBF04B643
:1003400003FE27C08091720290917302A091740203
:10035000B09175028730904BA740B04BD1F410920A
:10036000720210927302109274021092750214BEFF
:1003700084B7877F84BF0FB6F894A89580916000FA
:10038000886180936000109260000FBEE0E0F8E3A7
:10039000099511E0A0E0B1E0ECE6FEE302C00590B3
:1003A0000D92A033B107D9F722E0A0E3B1E001C07C
:1003B0001D92A237B207E1F70E94701C0C94341F03
:1003C0000C9400000895E8EDF0E080818E7F80833A
:1003D0001092E2001092DA001092E100A0EEB0E07C
:1003E0008C9181608C9380818F77808319BCA7ED7D
:1003F000B0E08C918E7F8C9380818F7E8083109271
:10040000420208952091E4003091E50085E6909144
:10041000EC0090FF06C09091E80090FF06C080E0DD
:1004200008959091E80092FDFACF9091710299237E
:1004300091F0953091F09091EB0095FD10C04091B6
:10044000E4005091E5002417350709F381509A0123
:10045000F1F684E0089582E0089583E0089581E054
:10046000089580917102843079F5809121019091F5
:100470002201A0912301B0912401892B8A2B8B2B7F
:1004800019F180910E018F708093E9008091F30043
:100490009091F200892798278927892B11F480E011
:1004A00008959091E8008091E8008E778093E800AD
:1004B00095FDF5CF0E940202811107C09091E800DE
:1004C0009E779093E800089582E0089580916902F4
:1004D00087FF13C08091E80082FF06C08091E8008A
:1004E0008B778093E80004C0809171028111F2CF74
:1004F0000895809171028823D9F38091E80080FFEC
:10050000F8CF8091E8008E77ECCF982F9093E90098
:10051000242F762F50E0891731F07091EC00209154
:10052000ED005091F00021FD07C09F5F973071F7FB
:100530008093E90081E008953091EB003E7F309395
:10054000EB003091ED003D7F3093ED003091EB00FA
:1005500031603093EB007093EC002093ED005093EA
:10056000F0002091EE0027FDE0CF80E00895CF92CB
:10057000DF92EF92FF920F931F93CF93DF93C8ED1B
:10058000D0E088818F7E8883E7EDF0E08081816014
:10059000808384E082BF81E08093420288818E7FE5
:1005A000888302EE10E0F80110821092DA0081EEEA
:1005B000C82ED12CF601108288818F77888388819C
:1005C0008068888388818F7D888319BC109271022E
:1005D00010926802109267021092660290EEE92E65
:1005E000F12CF70180818B7F8083888181608883F3
:1005F00042E060E080E00E948502F60180818E7F0B
:100600008083F8018081816080838081886080831D
:10061000F70180818E7F8083888180618883DF916C
:10062000CF911F910F91FF90EF90DF90CF900895A1
:10063000FC0180916F029091700286179707A0F0DD
:100640006115710529F49091E8009E779093E80078
:1006500090E06115710551F4911108C08091E80096
:1006600082FF35C080E00895BC01F2CF8091710215
:100670008823C9F18530C9F18091E80083FD31C03C
:100680008091E80082FDEACF8091E80080FFE1CF11
:100690002091F3008091F200322F282F611571050F
:1006A00019F02830310558F091E02830310509F073
:1006B00090E02091E8002E772093E800CACF819146
:1006C0008093F100615071092F5F3F4FE7CF809118
:1006D0007102882341F0853041F08091E80083FF6A
:1006E000BDCF81E0089582E0089583E00895809170
:1006F00045020895CF92DF92EF92FF920F931F93DE
:100700002FB7F8944091D3015091D4016091D50155
:100710007091D6012FBF6A017B01EE24FF248C016A
:1007200030E020E0C016D106E206F30650F0481B88
:10073000590BCA011F910F91FF90EF90DF90CF905E
:10074000089541505109F3CF2FB7F8948091D30108
:100750009091D401A091D501B091D6012FBF0895F9
:100760000F931F93CF93DF93C82F1092BC0084EA9E
:100770008093BC000E94A4038C018091BC0087FF81
:100780000DC08091B900887F8830B1F08091B900A8
:10079000887F803189F08FEF9FEF09C00E94A4030A
:1007A000801B910B883E934040F38EEF9FEFDF91CB
:1007B000CF911F910F910895C093BB0084E880935F
:1007C000BC000E94A403EC018091BC0087FF0AC01A
:1007D0008091B900887F883111F08034E1F690E093
:1007E00080E0E5CF0E94A4038C1B9D0B883E9340C4
:1007F00058F3DBCFCF93DF938093BB0084E88093E3
:10080000BC000E94A403EC018091BC0087FF0FC0D4
:100810002091B900287F81E090E0283211F490E027
:1008200080E0919581959109DF91CF9108950E9483
:10083000A4038C1B9D0B883E934030F38EEF9FEFFB
:10084000F3CF809143029091CE01892B9091CD01FD
:10085000892B80933101E0912102F091220230979F
:1008600099F080910C01882369F080911F0287FF25
:1008700009C085E0809330010280F381E02D80E3A0
:1008800091E0099481E0F6CF089590910C019923AD
:10089000D1F090911F0297FF16C0E82FE695E695DC
:1008A000E695EE31D8F4F0E0E05DFE4F282F27709A
:1008B00081E090E001C0880F2A95EAF78095928147
:1008C000892382830895E0E3F1E09381891301C0D5
:1008D0001382319691E0E633F907B9F708959091C4
:1008E0000C019923C1F090911F0297FF14C0E82FCB
:1008F000E695E695E695EE31F8F4F0E0E05DFE4F22
:10090000877021E030E001C0220F8A95EAF78281EA
:10091000822B82830895A3E3B1E0EFEF90E02D9165
:10092000821751F0EF3F19F4211101C0E92F9F5FA9
:100930009630A9F7EF3F09F408950E2E000CFF0B37
:10094000E05DFE4F83830895990F990F890F982FCB
:10095000977086958695869525E0829FA001112443
:1009600070E060E080E0FA01E60FF71FEA55FE4F05
:10097000208130E0092E02C0369527950A94E2F7CF
:1009800021703327062E01C0220F0A94EAF7822B2A
:100990006F5F7F4F6530710531F70895990F990F9B
:1009A000890F982F977071E001C0770F9A95EAF739
:1009B00086958695869525E0829FC001112450E09A
:1009C00040E0A62FB0E0FC01E40FF51FEA55FE4F12
:1009D00060819D01042E02C0369527950A94E2F7A6
:1009E0002170219526272723262720834F5F5F4FDD
:1009F0004530510541F708958091A501909174010A
:100A0000981301C008958F5F8770FACF882341F053
:100A10008095909143028923809343020C94210492
:100A20000895882339F090914302892B80934302E3
:100A30000C942104089520915801309159012817F0
:100A4000390771F09093590180935801E091210288
:100A5000F0912202309721F00084F185E02D099475
:100A6000089520915601309157012817390771F0E8
:100A70009093570180935601E0912102F091220258
:100A8000309721F00680F781E02D099408951092A7
:100A9000CE011092CD010E94210490E080E00E94DE
:100AA000310590E080E00C941B056093C9017093C0
:100AB000CA018093CB019093CC010C9447050F930E
:100AC0001F9341E050E060E070E004C0440F551F08
:100AD000661F771F8A95D2F7CB01BA016095709592
:100AE000809590950091C9011091CA012091CB0188
:100AF0003091CC0160237123822393231F910F91A6
:100B00000C9455050F931F9341E050E060E070E0B6
:100B100004C0440F551F661F771F8A95D2F7809136
:100B2000C9019091CA01A091CB01B091CC018A0179
:100B30009B01082B192B2A2B3B2BC901B8011F91B4
:100B40000F910C9455056093CF017093D001809361
:100B5000D1019093D2010C944705E0912102F091CC
:100B60002202309721F00190F081E02D099480E07D
:100B70000895882309F452C0823871F40E94AD05AB
:100B800081FF4CC089E30E946F040E94210489E325
:100B90000E9445040C942104833859F40E94AD0549
:100BA00080FF3CC083E50E946F040E94210483E51E
:100BB000EFCF843859F40E94AD0582FF2FC087E43F
:100BC0000E946F040E94210487E4E2CF9CEF980FFB
:100BD000913AF0F290E2980F983088F4877021E013
:100BE00030E0A90102C0440F551F8A95E2F7CA01FF
:100BF000809590914302892380934302CBCF9BE55C
:100C0000980F933020F490E080E00C943105885ADE
:100C1000873120F490E080E00C941B050895CF9379
:100C2000DF9300D000D01F92CDB7DEB76B837C83FB
:100C30008D838C819D81892B39F05F3F19F481E090
:100C40004F3F19F080E001C081E080FD0AC08B8138
:100C500081700F900F900F900F900F90DF91CF91B8
:100C6000089580E0F5CF90911F0292FF06C0282FD3
:100C70002871283069F4877F846093FF06C0282F8D
:100C80002871283161F4877E846194FD877E089500
:100C9000282F2471243089F78B7F8860EECF282F8E
:100CA0002471243191F78B7E8861EFCFCF93DF934E
:100CB000E72FF0E02EE0829FE00DF11D1124EE0FF2
:100CC000FF1FEE0FFF1FE60FF11DEE0FFF1FE45594
:100CD000FF4FC591D491CE01C238D105A9F1E8F5F5
:100CE000C133D10509F481C040F5C932D10509F4F9
:100CF00075C0CA32D10509F47FC0C11530E5D307EC
:100D000008F0ACC0C11540E4D40708F0ADC1C83E3E
:100D1000D10508F088C0C03ED105E0F4C83AD1053D
:100D200008F071C0C53AD10508F0F9C0C130D1054D
:100D300089F028F1249770F422C0C533D10509F455
:100D400046C0C933D105C9F620911F02237011F0A6
:100D500080EE90E0DF91CF910895C33ED10539F147
:100D600088F4C03ED105E1F0C23ED10531F62091B4
:100D70001F0222FFEFCF83EE90E024FFEBCF90E045
:100D800080E0E8CFC63ED105C9F0C73ED10509F0E5
:100D9000B4CF20911F0223FF0EC086EE90E0DACF81
:100DA00020911F0220FFD6CF89E390E0D3CF20917E
:100DB0001F0222FDAAC124FDE2CFCCCF20911F0249
:100DC00023FFC8CF87EE90E024FDD9CFC3CF209179
:100DD0001F0225FFBFCF89E290E0BCCF20911F0208
:100DE00025FFB8CF85E390E0B5CF20911F0226FF05
:100DF000B1CF8AE290E0AECF20911F0226FFAACFAA
:100E000081E390E0A7CFCF3BD10508F497C0C03C69
:100E1000D10508F4B4CFFE01EE0FFF1FE45DF040F2
:100E20008591949197CFC11550E2D50760F4C11513
:100E300021E0D20708F08ECFCE019065C03FD105EA
:100E400008F088CF9CCFC11530E3D30708F403C165
:100E5000CE019927D3FF06C1986C7CCFC11545E51B
:100E6000D40760F5C11554E5D50708F02FC1C115A9
:100E700082E5D80750F4C11591E5D90708F4F8C008
:100E80009C2F8827816F906A65CF2C2F26952695F9
:100E9000AE0143705527C115D34508F408C181E060
:100EA00090E002C0880F991F4A95E2F750E2259F13
:100EB00090011124822B932B9A684CCFC11549E5E0
:100EC000D407A0F4C11558E5D50708F004C1C11531
:100ED00086E5D80708F053CF8C2F0E94330690E0A8
:100EE000982F882788279F71906234CFC1159AE583
:100EF000D90708F4F5C0CE0190568115904208F04C
:100F00003ECF8D2F8F710E943306282F30E0322F75
:100F1000222722273F71CE0199279062C5C081E820
:100F200090E4C53AD10509F415CF83E890E4C63AB8
:100F3000D10509F00FCF82E890E40CCF82EE94E463
:100F4000C83AD10509F406CF89EE94E4C93AD1052F
:100F500009F400CF8AEE94E4CA3AD10509F4FACE36
:100F600085EB94E4CB3AD10509F4F4CE86EB94E416
:100F7000CC3AD10509F4EECE83EB94E4CB3BD1051A
:100F800009F4E8CE84EB94E4CC3BD10509F4E2CE3D
:100F900087EB94E4CD3AD10509F4DCCE8CEC94E4F3
:100FA000C03BD10509F4D6CE8DEC94E4CE3AD10500
:100FB00009F4D0CE83E895E4CF3AD10509F4CACE3E
:100FC0008AE895E4C13BD10509F4C4CE82E995E4F1
:100FD000C23BD10509F4BECE84E995E4C33BD105FB
:100FE00009F4B8CE81E296E4C43BD10509F4B2CE4F
:100FF00083E296E4C53BD10509F4ACCE84E296E4E5
:10100000C63BD10509F4A6CE85E296E4C73BD105DF
:1010100009F4A0CE86E296E4C83BD10509F49ACE45
:1010200087E296E4C93BD10509F494CE8FE694E4B7
:10103000CD3BD10509F48ECE80E794E4CE3BD105BB
:1010400009F488CE8AE296E4CA3BD10509F482CE3F
:1010500080E094E47FCEFE01FF70EE0FFF1FE455A9
:10106000FF4FDECE906C76CECE019F70906A72CE2E
:101070009E0174E0369527957A95E1F723703C2F11
:10108000337081E090E002C0880F991F3A95E2F733
:101090009C68AC01522B9A018C2F869586958370A3
:1010A00050E2859FC0011124822B932B53CE81E007
:1010B00090E002C0880F991F4A95E2F740E2249F12
:1010C00090011124822B932B9C6844CE9C2F88275F
:1010D000846F906A3FCE9C2F8827806F906A3ACEAB
:1010E0008C2F8F700E943306FE0194E0F695E795F1
:1010F0009A95E1F7EF70F0E0FE2FEE27F06A8F701F
:10110000806E9F01282BC90125CE82EE90E022CE71
:10111000BF92CF92DF92EF92FF920F931F93CF93E4
:10112000DF938C01C090C901D090CA01E090CB013F
:10113000F090CC018091CF019091D001A091D1018C
:10114000B091D201C82AD92AEA2AFB2ACFE1D0E0FD
:10115000BC2ED701C6010C2E04C0B695A795979555
:1011600087950A94D2F780FD0EC0219788F7B12C9D
:101170008B2DDF91CF911F910F91FF90EF90DF901A
:10118000CF90BF900895B8018C2F0E94560601970A
:1011900061F3EECFCF93DF93EC010E948808BE018C
:1011A000DF91CF910C9456060E94CA08292F2F7008
:1011B000E92FE295EF70E250EE30E0F4F0E0ED510F
:1011C000F74F0C94EC1EF108F108FA08FA08FC0835
:1011D000FA08FA08FA08F108F1080109FA08FA0809
:1011E0000109803F19F020F4803E20F481E0089549
:1011F000843FE1F380E00895803EC0F3813FD1F762
:10120000F5CF822F8695869586950895CF93C82F22
:10121000873050F58091000190910101892B11F5E3
:1012200080E40E94B0039093010180930001892B18
:10123000B1F482E10E94FA039093010180930001CE
:10124000892B69F481E090E001C0880FCA95EAF724
:1012500080950E94FA03909301018093000184E934
:101260008093BC00CF9108958A30B1F038F4883073
:1012700069F0893071F0209A2898F4CF8C3091F081
:1012800070F08D30C1F73E9A4698ECCF219A29989C
:10129000E9CF229A2A98E6CF239A2B98E3CF529A45
:1012A0005A98E0CF539A5B98DDCF84B1807F84B9A0
:1012B00085B1807F85B93E9846988AB1837F8AB987
:1012C0008BB1837F8BB9089580B38D7880BB81B358
:1012D000826781BB0895CF92DF92EF92FF920F93C6
:1012E0001F93CF93DF93C82F873008F090C0809171
:1012F000000190910101892B09F094C080E40E94C3
:10130000B0039093010180930001892B09F44BC035
:1013100090E084E98093BC002C2F30E0F901E05F7D
:10132000FD4FA081A9279083F901EE0FFF1FEE0F5B
:10133000FF1FE852FE4F70E060E040E0C1E0D0E007
:10134000CA2ED12C55E0162F8191882309F46CC048
:101350007F01A1E0EA1AF1088150D7018C93D601F0
:1013600002C0B595A7951A95E2F7A0FF05C08F01B9
:1013700001501109D8015C936F5F7F4F6430710594
:1013800011F72C5D3D4F842F8095F9012081822338
:101390009423892BDF91CF911F910F91FF90EF90B4
:1013A000DF90CF90089583E10E94FA0390930101AA
:1013B00080930001892B09F0ABCF81E40E94B00338
:1013C0009093010180930001892B09F0A1CF84E85B
:1013D0008093BC000E94A4038C018091BC0087FF15
:1013E00008C09091BB0090951092010110920001ED
:1013F00090CF0E94A403801B910B883E934068F31A
:101400008EEF9FEF909301018093000181CF8FB108
:101410009FB1869581709695969596959E70982B1E
:1014200090957ACF90E078CF7E01062E01C0EE0C29
:101430000A94EAF74E2993CFCF93C091E900909197
:10144000EC0090FD19C090E020911D0120FF12C01A
:10145000CF70C92B90910E019F709093E9009091ED
:10146000EB0090FF04C09091EE0097FD07C0CF7095
:10147000C093E900CF91089590E8E6CF9FEF2091C7
:10148000E800915025FD06C025ED2A95F1F70000F2
:101490009111F5CF8093F1008DE091E00E9431022F
:1014A0008091E80080FFE3CF8091E8008E77809301
:1014B000E800DDCF882309F402C18238B9F40E9424
:1014C000AD0581FDFCC089E30E946F040E942104E8
:1014D0002FEF81EE94E0215080409040E1F700C072
:1014E000000089E30E9445040C9421048338A1F490
:1014F0000E94AD0580FDE3C083E50E946F040E9459
:1015000021042FEF81EE94E0215080409040E1F7DC
:1015100000C0000083E5E6CF8438A1F40E94AD0549
:1015200082FDCDC087E40E946F040E9421042FEF4A
:1015300081EE94E0215080409040E1F700C000002F
:1015400087E4D0CF9CEF980F913A18F40E946F0473
:10155000CBCF90E2980F983068F4877021E030E0AC
:1015600001C0220F8A95EAF780914302822B809373
:101570004302BACF9BE5980F933070F4853A31F06F
:10158000863A39F083E890E00C94310581E890E0E8
:10159000FBCF82E890E0F8CF98E5980F973108F0FC
:1015A0008EC0883A09F446C0893A09F446C08A3A9E
:1015B00009F446C08B3A09F446C08C3A09F446C097
:1015C0008B3B09F446C08C3B09F446C08D3A09F4C4
:1015D00046C0803B09F446C08E3A09F446C08F3AB3
:1015E00009F446C0813B09F446C0823B09F446C079
:1015F000833B09F446C0843B09F446C0853B09F4AB
:1016000046C0863B09F446C0873B09F446C0883B88
:1016100009F446C0893B09F446C08D3B09F446C035
:101620008E3B09F446C08A3B09F446C090E080E056
:101630000C941B0582EE90E0FBCF89EE90E0F8CF92
:101640008AEE90E0F5CF85EB90E0F2CF86EB90E06C
:10165000EFCF83EB90E0ECCF84EB90E0E9CF87EB2A
:1016600090E0E6CF8CEC90E0E3CF8DEC90E0E0CF23
:1016700083E891E0DDCF8AE891E0DACF82E991E07A
:10168000D7CF84E991E0D4CF81E292E0D1CF83E259
:1016900092E0CECF84E292E0CBCF85E292E0C8CF59
:1016A00086E292E0C5CF87E292E0C2CF8FE690E07B
:1016B000BFCF80E790E0BCCF8AE292E0B9CF089537
:1016C000CF92DF92EF92FF92CF93C62FC09052013C
:1016D000D0905301E0905401F0905501C222D322E2
:1016E000E422F522C216D306E406F506F1F4862FAD
:1016F0000E945A0A8C2F0E94B905C094D094E0949D
:10170000F0948091520190915301A0915401B091B5
:1017100055018C219D21AE21BF21809352019093D0
:101720005301A0935401B0935501CF91FF90EF90D6
:10173000DF90CF9008950F931F9300915201109165
:1017400053012091540130915501442381F0062B1F
:10175000172B282B392B0093520110935301209300
:1017600054013093550181E01F910F910895062394
:10177000172328233923012B022B032BA1F320E06D
:101780003DE340E050E06DE170E080E090E00E94D9
:10179000600B20E039EA40E050E06DE070E080E06E
:1017A00090E00E94600B20E031E840E050E069E109
:1017B00070E080E090E00E94600B20E031E040E4C7
:1017C00050E06CE270E080E090E00E94600B20E06E
:1017D00031E040E050E066E170E080E090E00E949F
:1017E000600B20E03EE340E050E06DE170E080E01F
:1017F00090E00E94600B20E03AEA40E050E06DE0AB
:1018000070E080E090E00E94600B20E032E840E071
:1018100050E069E170E080E090E00E94600B20E021
:1018200032E040E450E06CE270E080E090E00E9442
:10183000600B20E032E040E050E066E170E080E0E4
:1018400090E00E94600B20E03CE340E050E06AE062
:1018500070E080E090E00E94600B20E034E540E022
:1018600050E061E170E080E090E00E94600B20E0D9
:101870003CE040E050E067E070E080E090E00E94F3
:10188000600B20E034E140E050E069E070E080E08F
:1018900090E00E94600B20E034E040E050E067E11F
:1018A00070E080E090E00E94600B20E038EA40E0C9
:1018B00050E06CE170E080E090E00E94600B20E07E
:1018C00038E140E050E06BE170E080E090E00E94A1
:1018D000600B20E038E240E050E064E170E080E03E
:1018E00090E00E94600B20E038E840E050E066E0C5
:1018F00070E080E090E00E94600B20E038E040E083
:1019000050E06EE070E080E090E00E94600B20E02C
:1019100030E340E050E065E070E080E090E00E945D
:10192000600B20E030E540E050E060E170E080E0F6
:1019300090E00E94600B20E030E140E050E063E185
:1019400070E080E090E00E94600B20E030E240E038
:1019500050E06AE170E080E090E00E94600B20E0DF
:1019600030EC40E050E06FE070E080E090E00E94FA
:10197000600B20E030E440E050E06BE070E080E09D
:1019800090E00E94600B20E030E440E050E06BE02B
:1019900070E080E090E00E94600B20E030E840E0E2
:1019A00050E065E170E080E090E00E94600B20E094
:1019B00030E041E050E064E070E080E090E00E94C0
:1019C000600B20E030E042E050E062E170E080E057
:1019D00090E00E94600B20E030E04CE050E06CE0D2
:1019E00070E080E090E00E94600B20E030E044E096
:1019F00050E068E070E080E090E00E94600B20E042
:101A000030E048E050E068E170E080E090E00E9463
:101A1000600B20E030E040E150E069E070E080E001
:101A200090E00E94600B20E030E040E250E065E191
:101A300070E080E090E00E94600B20E030E040EC3D
:101A400050E061E170E080E090E00E94600B20E0F7
:101A500030E040E450E063E170E080E090E00E941C
:101A6000600B20E030E040E850E065E070E080E0AE
:101A700090E00E94600B20E030E040E051E06FE039
:101A800070E080E090E00E94600B20E030E040E0F9
:101A900052E06AE070E080E090E00E94600B20E09D
:101AA00030E040E054E067E170E080E090E00E94C8
:101AB000600B20E030E040E058E066E170E080E05C
:101AC00090E00E94600B20E030E040E050E167E0F1
:101AD00070E080E090E00E94600B20E030E040E0A9
:101AE00050E26DE170E080E090E00E94600B3BCE40
:101AF00080E290E090930101809300018091510178
:101B0000811111C01092B9008CE08093B80081E07F
:101B1000809351012FEF83ED90E32150804090405E
:101B2000E1F700C0000080E40E94B003909301013F
:101B300080930001892B09F040C080E00E94FA03E5
:101B40009093010180930001892BB9F580E80E94F0
:101B5000FA039093010180930001892B71F58FEFB7
:101B60000E94FA039093010180930001892B29F5CB
:101B700084E98093BC0080E40E94B003909301014B
:101B800080930001892BC9F48CE00E94FA039093A2
:101B9000010180930001892B81F480E80E94FA03FF
:101BA0009093010180930001892B39F48FEF0E94FB
:101BB000FA03909301018093000184E98093BC00B3
:101BC0008091000108950F931F93CF93DF9380912D
:101BD000000190910101892B71F0809150018F5F7C
:101BE00080935001811107C00E94780D90E090937E
:101BF00001018093000104E212E0C0E08C2F0E94FA
:101C00000609D7E0DC0F8D2F0E9406098C2F0E9459
:101C10006B09F80181938F018D2F0E946B09F801E8
:101C200086830E945509CF5FC73041F781E0DF917D
:101C3000CF911F910F91089590E080E00E94FA1ECD
:101C400021E08D3E9E4F09F020E0822F08956DEE39
:101C50007EEF90E080E00E941E1F60E082E090E056
:101C60000E94001F60E083E090E00E94001F10923D
:101C7000CF011092D0011092D1011092D20160E0F8
:101C800084E090E00E94001F60E085E090E00E9408
:101C9000001F60E086E090E00E94001F6FEF87E089
:101CA00090E00E94001F40E050E0BA0188E090E020
:101CB0000E94121F60E08DE090E00E94001F40E053
:101CC00050E0BA0188E190E00E94121F60E087E1D5
:101CD00090E00E94001F40E050E0BA018FE090E0E9
:101CE0000E94121F40E050E0BA0183E190E00C94A2
:101CF000121F80910C01882369F080911F0287FFD9
:101D000009C0E2E3F1E08EE1DF011D928A95E9F777
:101D10000C944705E3E3F1E086E0F6CF0F931F93C1
:101D2000CF93DF93CDB7DEB7AA970FB6F894DEBF97
:101D30000FBECDBF80917102882309F4E4C11091D8
:101D4000E9001F708091EC0080FF65C080E8182BCF
:101D50001092E9008091E80083FFD2C1E9E6F2E049
:101D600081E792E02091F10021938E179F07D1F730
:101D700080916A02833009F4C7C008F04EC08130F8
:101D800009F483C0823009F409C18091E80083FF1F
:101D9000A0C020910D0180916D0290916E022817D4
:101DA000190609F096C080916A02813209F416C1C1
:101DB00008F005C1803209F08CC08091690281323F
:101DC00009F087C08091E800877F8093E8008091C8
:101DD000E80082FF40C13091F1002091F100909124
:101DE000F1008091F1003093210120932201909322
:101DF0002301809324018091F1008093250180913B
:101E0000F100809326018091F10080932701809159
:101E1000E8008B771BC180E09ACF8A3009F4ADC00F
:101E20008B3009F48EC0893009F0AFCF8091690200
:101E3000813209F0AACF80916D0290916E02892BB8
:101E400009F0A3CF8091E800877F8093E80080911C
:101E5000E80082FF3AC08091F3009091F200892758
:101E600098278927029729F48091F1008B7F813090
:101E700021F48091F100809345028091E8008B77F6
:101E80008093E8000E94660280CF80916902813AC7
:101E900009F07BCF8091E800877F8093E8008091F4
:101EA0006D0290916E02892B61F060E090E080E01D
:101EB00070E00E9418038091E8008B778093E8001F
:101EC00064CF60E286E492E0F3CF809171028111E9
:101ED000BECF8091E80083FF05C180916902909197
:101EE0006A029A3008F0FEC0E92FF0E0E658F04FA1
:101EF0000C94EC1E45106B1072106B107210CD100C
:101F0000EF107210E711F41180916902813A09F023
:101F10003CCF80916D0290916E02892B09F035CFF4
:101F20008091E800877F8093E8008091E80080FF3F
:101F3000FCCF80910C018093F1008091E8008E77B6
:101F40009FCF80916902813209F01FCF80916D028D
:101F500090916E02892B09F018CF8091E800877F5D
:101F60008093E8000E94660280916B0280930C01CE
:101F7000109243020E94790E08CF8091690281324B
:101F800009F003CF8091E800877F8093E8000E94EA
:101F9000660280916C0280934402F7CE80916902C0
:101FA000813A09F0F2CE8091E800877F8093E800C3
:101FB0008091E80080FFFCCF80914402BCCF823248
:101FC00009F44EC0833209F084CF809169028132D6
:101FD00009F07FCF8091E800877F38C08091690247
:101FE000813A09F076CF8091E800877F8093E800FE
:101FF0008091E80080FFFCCF809121019091220127
:10200000A0912301B09124018093F100492F5A2F10
:102010006B2F77274093F100AD0166277727409318
:10202000F1008B2F9927AA27BB278093F10080917D
:1020300025018093F100809126018093F100809129
:1020400027018093F1008091E8008E778093E8006B
:102050000E9466023ECF809171028111B8CE39CFC5
:1020600080916902813209F034CF8091E800877F46
:102070008093E8000E94660280916B0290916C024E
:1020800090931E0180931D0124CF803889F08238FF
:1020900049F580916D028F70873020F58093E900BB
:1020A0008091EB0085FB882780F91092E90006C03B
:1020B0008091660290916702911182609091E80090
:1020C000977F9093E8008093F1001092F100809147
:1020D000E8008E7731C0282F2D7F21F48823F1F07E
:1020E000823079F18091E80083FF0AC08091E80096
:1020F000877F8093E8008091EB0080628093EB0003
:102100001F701093E900AA960FB6F894DEBF0FBEB9
:10211000CDBFDF91CF911F910F91089580916B02F8
:10212000813001F7933009F080E0809367021092CC
:10213000E9008091E800877F8093E8000E946602B2
:10214000D1CF80916B028111F2CF80916D028F709F
:102150002FEF280F263030F68093E9002091EB0016
:1021600020FFE5CF933031F48091EB0080628093C3
:10217000EB00DDCF9091EB0090619093EB0021E0BC
:1021800030E001C0220F8A95EAF72093EA0010920E
:10219000EA008091EB008860EACF8111A3CF009123
:1021A0006B020F778091E3008078802B8093E300AF
:1021B0008091E800877F8093E8000E94660280910A
:1021C000E80080FFFCCF8091E30080688093E3000B
:1021D00083E0011101C082E08093710283CF8058B7
:1021E000823008F07FCF80916B0290916C028C3D21
:1021F00023E09207A1F583E08A838AE289834FB7BF
:10220000F894DE01139620E03EE051E2E32FF0E087
:1022100050935700E49120FF03C0E295EF703F5FB9
:10222000EF708E2F90E0EA30C0F0C7968D939D93AB
:102230002F5F243159F74FBF8091E800877F80934B
:10224000E8006AE270E0CE0101960E9418038091D6
:10225000E8008B778093E80045CFC096E7CF4091A8
:102260006D0250916E02292F33272330310509F476
:1022700040C078F52130310509F471C08FE590E058
:10228000EFE7F2E02230310509F02CCF2091E80091
:10229000277F2093E80020916F023091700282170F
:1022A000930708F49C0140E02115310509F05CC05A
:1022B00041115AC08091E80082FDC9CF809171021E
:1022C000882329F2853019F28091E80083FFF2CF4C
:1022D000BECF2132310509F43AC02232310509F06E
:1022E00001CF452B09F0FECE83EB90E0ECECF1E062
:1022F000CDCF992781309105D1F070F082309105D2
:10230000F1F0039709F0EECEE0EFF2E0E4918E2FCA
:1023100090E0E0EFF2E007C0EEE2F3E0E4918E2F10
:1023200090E0EEE2F3E0009709F4DCCEAFCFE6E018
:10233000F3E0E4918E2F90E0E6E0F3E0F4CFE6EFF7
:10234000F2E0E4918E2F90E0E6EFF2E0ECCF452B47
:1023500009F0C8CE89E090E0E1E9F2E097CF82E1B0
:1023600090E0EEEDF2E092CF80917102882309F4C3
:102370006ECF853009F46BCF8091E80083FD67CF85
:102380008091E80082FD96CF8091E80080FF8CCF9D
:102390008091F3009091F2008927982789272115D1
:1023A000310519F08830910550F041E0089709F0A7
:1023B00040E08091E8008E778093E80075CF4491EB
:1023C0004093F1003196215031090196E8CF8038D1
:1023D00009F088CE8091E800877F8093E8008091A3
:1023E00068028093F10073CE81117CCE00916B0264
:1023F000023008F077CE8091E800877F8093E80074
:10240000009368020E9466020023C1F084E080937A
:10241000710242E261EC81E00E94850242E061ECDF
:1024200082E00E94850242E160E884E00E94850229
:1024300042E161E883E00E94850254CE8091E3008E
:1024400087FDE4CF81E0E3CFEF92FF920F931F93DC
:10245000CF937C018B010E940202C82F811119C009
:102460008091E80085FD0DC08091E8008E77809313
:10247000E8000E948E0E0E940202882389F3C82F72
:1024800008C0F70181917F018093F100015011098B
:1024900039F78C2FCF911F910F91FF90EF900895F6
:1024A000CF93DF9300D01F92CDB7DEB79C01909100
:1024B000D701911129C080917102843049F584E0DF
:1024C00089833B832A8381E08093E9008FEF909199
:1024D000E800815095FD06C095ED9A95F1F7000052
:1024E0008111F5CF8091E80085FF12C050E040E0F7
:1024F00063E070E0CE0101960E9424128091E80012
:102500008E778093E80004C09230C9F29430B9F21B
:102510000F900F900F90DF91CF910895CF93DF939D
:1025200000D01F92CDB7DEB720917102243031F573
:1025300023E02983805891099B838A8381E08093DB
:10254000E9008FEF9091E800815095FD06C095ED70
:102550009A95F1F700008111F5CF8091E80085FF91
:102560000DC050E040E063E070E0CE0101960E94B3
:1025700024128091E8008E778093E8000F900F90EE
:102580000F90DF91CF910895CF93DF93EC0180916D
:10259000D701811107C080917102843029F0DF9149
:1025A000CF9108958230C9F780910C01882321F0E2
:1025B00080911F0260E287FF69E081E08093E9007B
:1025C0008FEF9091E800815095FD06C095ED9A95AA
:1025D000F1F700008111F5CF8091E80085FFDFCF92
:1025E00080910C01811116C050E040E068E070E07D
:1025F000CE0101960E9424128091E8008E7780938C
:10260000E80080E2FE01A6E4B2E001900D928A9516
:10261000E1F7C5CF70E050E040E0CE01EBCF86E0BF
:10262000EAE5F1E0DF01982F1D929A95E9F7E0E6DF
:10263000F1E0DF011D928A95E9F70895CF93C82F45
:102640000E940F13C0931E026C2F8DE090E0CF917B
:102650000C94001FCF92DF92EF92FF920F931F9383
:10266000CF93DF93EC01188109818B819C81892BA9
:1026700039F00F3F19F481E01F3F19F080E001C0ED
:1026800081E080FD56C0C880D9808A81882309F402
:1026900042C0C6010E948808F82E682FC6010E9419
:1026A000CE04E02FF0E02EE0F29EE00DF11D1124AB
:1026B000EE0FFF1FEE0FFF1FE10FF11DEE0FFF1FCB
:1026C000E455FF4F05911491F801E35FFC45EC31AF
:1026D000F10508F0B5C0E159FC4E0C94EC1E9013C6
:1026E000A213A813AE13B413BA13C013C613CC139A
:1026F000D213201420142014201420142014D813D2
:10270000DE13E413EA13F013F613FC130214081497
:102710000E1414141A14C6010E94A404F82EC1CF7A
:102720004A8160E071E080E090E00E949B0B8111A3
:102730004CC5DF91CF911F910F91FF90EF90DF90EB
:10274000CF9008954A8160E072E080E090E0EDCFA4
:102750004A8160E074E080E090E0E7CF4A8160E089
:1027600078E080E090E0E1CF4A8160E070E180E0D5
:1027700090E0DBCF4A8160E070E280E090E0D5CF6E
:102780004A8160E070E480E090E0CFCF4A8160E071
:1027900070E880E090E0C9CF4A8160E070E081E0BD
:1027A00090E0C3CF4A8160E070E082E090E0BDCF6E
:1027B0004A8160E070E084E090E0B7CF4A8160E059
:1027C00070E088E090E0B1CF4A8160E070E080E1A5
:1027D00090E0ABCF4A8160E070E080E290E0A5CF6E
:1027E0004A8160E070E080E490E09FCF4A8160E041
:1027F00070E080E890E099CF4A8160E070E080E08E
:1028000091E093CF4A8160E070E080E092E08DCF6C
:102810004A8160E070E080E094E087CF4A8160E028
:1028200070E080E098E081CF4A8160E070E080E075
:1028300090E17BCF4A8160E070E080E090E275CF6C
:1028400000338AE5180709F46AC008F057C0C801C8
:102850009A558A9708F478C08A81073D2CE51207BB
:1028600009F44AC208F029C10531ECE51E0708F059
:1028700005C10230FCE51F0708F0AFC101152CE5CA
:10288000120709F460C101301C4509F490C191E0C0
:1028900090936C0190936D0108811981882309F44C
:1028A0008BC2C8010E948808F82E682FC8010E94B8
:1028B000CE04B8018F2D0E945606182F082F3D8197
:1028C00032953F702A8121111092CE01C92FC295F5
:1028D000CF70CC3008F0DAC2EC2FF0E0EE58FB4EAF
:1028E0000C94EC1EE116E116211721173F1746172D
:1028F00046174617701746175E185E180133EAE54B
:102900001E0709F0A9CF488159816A817B818C819A
:102910000E940F06882309F40CCF81E00BC0488188
:1029200059816A817B818C810E940F06882309F47A
:1029300000CF80E0DF91CF911F910F91FF90EF903A
:10294000DF90CF900C941E13F0901E0248815981A5
:102950006A817B818C810E940F06482FFF2099F0AD
:10296000F1E0FF1691F110916601488159816A8169
:102970007B818C810E940F06882309F449C01F5F68
:1029800010936601D6CEF801FF27E457FE4F9491CD
:10299000A92FA295A695A695A370B0E0882371F003
:1029A0009D01265A3E4FF9018081892B8083A05AD0
:1029B000BE4F0C91E92FE02BEC93D5CFA65ABE4F1A
:1029C000E92FE0950C91E023F7CF802F67E00E947C
:1029D000E01E292FE82FF0E086E090E0821B9109AD
:1029E00021E030E001C0220F8A95EAF7DF01A65A04
:1029F000BE4F8C91442341F0822B8C93E05AFE4FC2
:102A00008081282B2083AFCF209528232C93ABCF18
:102A100011501093660111160CF48BCE10926601C2
:102A2000FF2069F0F1E0FF16C9F0DF91CF911F910F
:102A30000F91FF90EF90DF90CF900C940F13C0E6B2
:102A4000D1E004E611E0899181110E941C0A0C1763
:102A50001D07C9F780E00E941C0AE7CF8091600142
:102A6000806880936001C0E6D1E006E611E08991BC
:102A70000E941C0A0C171D07D1F7D7CF06311C4541
:102A800009F005CF882309F48DC1809143028A7A29
:102A900091E009F490E090936701882309F480C1E4
:102AA00085E30E946F04DF91CF911F910F91FF90FA
:102AB000EF90DF90CF900C9421040C3DFCE51F07B4
:102AC00009F47EC050F5083D9CE5190709F447C19B
:102AD000093D1C4509F0DBCE811143C180916D0198
:102AE00081115CC180916A0190916B010E947A030F
:102AF000883C910508F052C180E20E94060588E2F8
:102B00000E945A0A88E2DF91CF911F910F91FF90A6
:102B1000EF90DF90CF900C94B9050D3DFCE51F07B9
:102B200009F454C00E3D1C4509F0B1CE882309F4C8
:102B300000CEDF91CF911F910F91FF90EF90DF902A
:102B4000CF900C94270E882309F4F3CD1092430202
:102B50000E94790E8FEF94E3ECE081509040E040CA
:102B6000E1F700C0000081E08093E00080E2809304
:102B7000D8001092C9008FE19EE40197F1F700C0E0
:102B8000000087E090EBDC01809372029093730267
:102B9000A0937402B093750288E19CE00FB6F8949C
:102BA000A895809360000FBE90936000FFCF8823AC
:102BB00009F4BFCD80913302816080933302B9CD97
:102BC000882309F4B6CD1092D701B3CD882309F438
:102BD000B0CD82E08093D701ACCD882309F45CCEE0
:102BE0000E941C0E811102C00E94270E84E090E01A
:102BF0000E94F21E90E09093200280931F02F80141
:102C0000E350FC4580911F028160E231F105C8F478
:102C1000E45FF94E0C94EC1E1E16351639163D165F
:102C20004116451649164D165116551659165D167C
:102C30006116651669166D167116751680911F025C
:102C4000826080931F0260911F0284E090E00E94E6
:102C5000001F10924302DF91CF911F910F91FF90BF
:102C6000EF90DF90CF900C94790E80911F028460DA
:102C7000E8CF80911F028860E4CF80911F028061BD
:102C8000E0CF80911F028062DCCF80911F028064C0
:102C9000D8CF80911F028068D4CF80911F028460BA
:102CA000EACF80911F028E7FCCCF80911F028D7F53
:102CB000C8CF80911F028B7FC4CF80911F02877F76
:102CC000C0CF80911F028F7EBCCF80911F028F7D6D
:102CD000B8CF80911F028F7BB4CF80911F028F7776
:102CE000B0CF80911F028B7FEACF90911F02892F76
:102CF00097FB87F98058A5CF882399F010926C0133
:102D00000E94A403909369018093680182E0DF919F
:102D1000CF911F910F91FF90EF90DF90CF900C9487
:102D2000110580916C0181110FC080916801909113
:102D300069010E947A03883C910530F486E20E9482
:102D40005A0A86E20E94B90582E0DF91CF911F9175
:102D50000F91FF90EF90DF90CF900C9406058823A1
:102D600051F010926D010E94A40390936B01809327
:102D70006A0180E2CCCF80916D0181110FC08091FA
:102D80006A0190916B010E947A03883C910530F4AE
:102D900087E20E945A0A87E20E94B90580E2D5CFF5
:102DA00089E27FCE80916701882321F085E30E942C
:102DB000450479CE89E2FBCFC8010E94A404F82E15
:102DC00078CDC92FCF70907F11F0C295C07F812F31
:102DD000222301F1CC2369F090E2910F983010F09A
:102DE000111112C080914302C82BC09343020E946C
:102DF0002104812FDF91CF911F910F91FF90EF90D0
:102E0000DF90CF900C945A0A8091CE01C82BC093CA
:102E1000CE01EDCF0E94B905CC2309F48ACCC09530
:102E2000105E183010F0011106C080914302C823D3
:102E3000C093430238CE8091CE01C823C093CE0107
:102E400032CE892F8F70907F903211F08295807FE3
:102E5000013051F4222321F0333008F06ACC57CFEF
:102E6000323008F066CC71CF222321F0332309F4ED
:102E70004ECFBFCF332309F468CF812F44CE892FA3
:102E800086958695837061F08130D1F0C83009F461
:102E900071C008F44ECCCA50C23008F04ACC6AC0A7
:102EA000812F9370211102C090E080E0DF91CF91DB
:102EB0001F910F91FF90EF90DF90CF900C94310510
:102EC000812F9370211102C090E080E0DF91CF91BB
:102ED0001F910F91FF90EF90DF90CF900C941B0506
:102EE000892F837009F077C0211144C0812F82950A
:102EF00086958770880F880F612F6F70C62ED12C32
:102F0000F12CE12C082E04C0CC0CDD1CEE1CFF1CA7
:102F10000A94D2F740E050E0BA0114FF0FC04FE02E
:102F200050E060E070E004C0440F551F661F771F3B
:102F30008A95D2F740955095609570950091CF0194
:102F40001091D0012091D1013091D20196959695A2
:102F50009370923021F170F59130B1F04C295D29D8
:102F60006E297F29CB01BA01602371238223932329
:102F70000E94A305DF91CF911F910F91FF90EF90D9
:102F8000DF90CF900C94AD05C02AD12AE22AF32A13
:102F9000CB01BA016C297D298E299F29E9CF4C29C3
:102FA0005D296E297F29CB01BA016027712782270D
:102FB0009327DECFCB01BA016023712382239323B1
:102FC0000E94A3056091CF017091D0018091D10141
:102FD0009091D201DFCF8695222311F0892F817045
:102FE000882341F2812F829586958770880F880FFC
:102FF000612F6F70C62ED12CF12CE12C082E04C04D
:10300000CC0CDD1CEE1CFF1C0A94D2F740E050E013
:10301000BA0114FF0FC04FE050E060E070E004C060
:10302000440F551F661F771F8A95D2F7409550951C
:10303000609570950091C9011091CA012091CB0152
:103040003091CC019695969593709230D9F028F5F1
:10305000913069F04C295D296E297F29CB01BA0195
:1030600060237123822393230E94550583CFC02AB6
:10307000D12AE22AF32ACB01BA016C297D298E29B3
:103080009F29F2CF4C295D296E297F29CB01BA01F6
:103090006027712782279327E7CFCB01BA016023EE
:1030A0007123822393230E9455056091C901709179
:1030B000CA018091CB019091CC01DFCF812F003FDD
:1030C000B1F160F4003E10F5222309F46AC0332305
:1030D00009F464C0812F0E945A0AD8CE023F09F435
:1030E00052C008F449C0033F79F7222309F452C0C3
:1030F000292F2F7161E070E080E090E004C0660F3E
:10310000771F881F991F2A95D2F72FC01F70892F0C
:103110008F71222331F00E948205812F0E941105B8
:10312000B5CE0E945F05812F0E940605AFCE2223F7
:10313000F9F0323008F0AACE292F2F7161E070E04B
:1031400080E090E004C0660F771F881F991F2A95C2
:10315000D2F70091C9011091CA012091CB013091A1
:10316000CC0160277127822793270E9455058ECEB8
:10317000333008F08BCEE0CF892F8F71222339F0C6
:103180000E94820583CE892F8F712223C9F30E946A
:103190005F057CCE60E070E0CB01E7CF892F8F71B7
:1031A000EFCF332379F0893349F49FEFE7EEF3E073
:1031B0009150E040F040E1F700C00000812F0E94F4
:1031C000B90564CE892F8F71E2CF8A8160CB1F93BE
:1031D000CF93DF9380917301807FD1F48091700150
:1031E0008823B1F08091A501D0917401B0916E0156
:1031F000C0916F014091710150917201A1E0BF3FF8
:1032000009F0A0E0BA016095709516E0D81304C0EB
:10321000DF91CF911F91089521E04115510521F0D3
:103220002A2FCF3F09F020E090E020FD38C0189F02
:10323000F001199FF00D1124EB58FE4F21812C1342
:103240002EC020812B132BC02281211128C0238165
:1032500034812417350700F1241B350B283C310538
:10326000F0F4209173012F7020612093730126E008
:10327000289FF001299FF00D1124E658FE4F808110
:103280008F70806180838EE691E00E942A13DF9127
:10329000CF911F910C94FC04260F371FDFCF0196AE
:1032A0008770B4CFAF92BF92CF92DF92EF92FF922E
:1032B0000F931F93CF93DF93CDB7DEB761970FB610
:1032C000F894DEBF0FBECDBF8C0185E0F801DE01B2
:1032D0001D9601900D928A95E1F7D8013C911196C7
:1032E0002C9111971296EC9050916E0160916F01A4
:1032F000809171019091720141E0009731F06F3F30
:1033000019F441E05F3F09F040E0B42FB170BB2EEB
:1033100040FD5EC1F801C380D480A0907001AA2056
:1033200009F40EC1C816D906C0F1D601A81BB90B05
:10333000CD01FF24F394883C910508F0F12C809195
:103340007301982F907FFF2009F4BCC0911185C0B4
:10335000FE2C621327C0531325C0E11023C08F70C9
:103360008061809373018EE691E00E942A13809120
:103370007301F80185838F2D61960FB6F894DEBF37
:103380000FBECDBFDF91CF911F910F91FF90EF90B6
:10339000DF90CF90BF90AF900895809590958C0D61
:1033A0009D1DC7CF81E0CD2831F02F3F19F481E07A
:1033B0003F3F09F080E080FD24C081E08E25F82F9A
:1033C000F170DF2E80FF3FC08091A5014091740114
:1033D00056E0841318C03D872E878D859E850E94F8
:1033E000CA08292F22952F70223008F1243030F599
:1033F0009F7009F1D80115969C91907FE1F4FB2C08
:10340000BACF80E0DCCF90E0589FF001599FF00DDB
:103410001124EB58FE4F6181261306C060813613DC
:1034200003C06281E6120FC001968770D2CF9F70F1
:1034300011F0882321F3805E883008F3C8010E94D0
:103440002A13BD2CDCCFEE2009F495CF80917301B7
:10345000816080937301F12C8ECF621306C05313E9
:1034600004C0F801EE2009F495C03D872E878D85B4
:103470009E850E94D408882309F1EE20F9F08091FE
:103480007301803270F020916E0130916F013887A6
:103490002F831986DB86CA868C87CE0107960E9409
:1034A0002A1386E0F801AEE6B1E001900D928A950C
:1034B000E1F70E94E718FF24F3945DCFC8010E9452
:1034C0002A13F9CF91110CC08EE691E00E942A13C5
:1034D00086E0EEE6F1E0DF011D928A95E9F74BCF39
:1034E000621312C0531310C0E1100EC0F80185839F
:1034F000C8010E942A13EEE6F1E086E0DF011D928A
:103500008A95E9F7FA2C37CF3D872E878D859E85E2
:103510000E94D408882391F2EE2081F280917301F9
:10352000803208F4BECF20916E0130916F013A8352
:1035300029831B82DD82CC828E83CE010196AFCFA0
:10354000C816D90640F0C81AD90AB8ECCB16D1046F
:1035500048F0F12CBDCF809590958C0D9D1D883C39
:103560009105B8F7FE2CEE2009F4A8CF62131FC016
:1035700053131DC08091730180FD10C0982F907F60
:1035800069F0F8018583903F31F0982F907F905F2C
:103590008F70892B8583C8010E942A1386E0F80169
:1035A000AEE6B1E001900D928A95E1F7E4CE3D8759
:1035B0002E878D859E850E94D408811172CF8091BF
:1035C0007301816080937301C8010E942A13D3CED6
:1035D000EE2009F473CF3D872E878D859E850E944E
:1035E000D408F82E882309F469CF86E0F801AEE606
:1035F000B1E001900D928A95E1F780916E01909172
:103600006F010E94CA080E94E718B5CE1F93CF939E
:10361000DF93CDB7DEB767970FB6F894DEBF0FBE66
:10362000CDBF4B8B5C8B6D8B7E8B8F8B1A8A198AEF
:1036300085E0FE017396DE011D9601900D928A953C
:10364000E1F786E0FE013D96DE01179601900D92AE
:103650008A95E1F7CE0107960E945219811137C071
:1036600086E0FE013796DE01119601900D928A9553
:10367000E1F79F8188852A853B85232B39F08F3F91
:1036800019F481E09F3F19F080E001C081E080FDE6
:103690001EC02091740130E0C901019687709927FE
:1036A0004091A5014817190659F196E0929FD00163
:1036B000939FB00D1124AB58BE4FFE01319601907F
:1036C0000D929A95E1F7809374010E94FC0416E034
:1036D0008091A50190917401891709F1819FC00122
:1036E00011248B589E4F0E9452198823C1F080915B
:1036F000A50190E00196877099278093A501E8CFF6
:10370000109243020E94790E109274011092A5014A
:1037100086E0EEE6F1E0DF011D928A95E9F7679613
:103720000FB6F894DEBF0FBECDBFDF91CF911F91D2
:1037300008951F920F920FB60F9211242F933F936B
:103740004F935F936F937F938F939F93AF93BF93A9
:10375000EF93FF938091E10082FF09C08091E20026
:1037600082FF05C08091E1008B7F8093E100809112
:10377000DA0080FF24C08091D80080FF20C08091B3
:10378000DA008E7F8093DA008091D90080FF9AC0A2
:1037900080E189BD82E189BD09B400FEFDCF81E0F1
:1037A0008093710280914202811109C00E94E3015D
:1037B0000E94B7028091E20084608093E2008091D1
:1037C000E10080FF17C08091E20080FF13C080916C
:1037D000E2008E7F8093E2008091E200806180931E
:1037E000E2008091D80080628093D80019BC85E007
:1037F000809371028091E10084FF2DC08091E200EE
:1038000084FF29C080E189BD82E189BD09B400FE41
:10381000FDCF8091D8008F7D8093D8008091E1000A
:103820008F7E8093E1008091E2008F7E8093E200A2
:103830008091E20081608093E20080916802882399
:1038400009F446C084E080937102109243020E9402
:10385000790E0E94AD058091E10083FF22C0809126
:10386000E20083FF1EC08091E100877F8093E1002A
:1038700082E080937102109268028091E1008E7F55
:103880008093E1008091E2008E7F8093E20080913E
:10389000E20080618093E20042E060E080E00E940C
:1038A0008502FF91EF91BF91AF919F918F917F9191
:1038B0006F915F914F913F912F910F900FBE0F909D
:1038C0001F90189519BC109271021092420277CF86
:1038D0008091E30087FD02C081E0B5CF83E0B3CFE4
:1038E000CF93DF93CDB7DEB72D970FB6F894DEBF39
:1038F0000FBECDBF84B7877F84BF0FB6F894A8955D
:1039000080916000886180936000109260000FBE1B
:1039100080E8809361001092610085B7806885BF60
:1039200085B7806885BF0E94E3010E94B70280913D
:10393000E20084608093E20078940E948E0E82E020
:1039400084BD93E095BD9AEF97BD80936E000E9471
:10395000780D90E090930101809300010E94550939
:103960000E94640920E132E0E8EDF1E054E2E52E46
:1039700052E0F52ED7011D927D01D9011D929D01C6
:1039800010821182128213823496B2E3EB16B2E0F7
:10399000FB0681F70E941C0E811102C00E94270EB7
:1039A00081E00E941E133F988AB18F708AB96E9889
:1039B000479A8BB1806F8BB9769A0E941C0E811149
:1039C00002C00E94270E82E090E00E94F21E8093C7
:1039D000330284E090E00E94F21E90E09093200277
:1039E00080931F0283E090E00E94F21E682F70E037
:1039F00090E080E00E94A3050E941C0E811102C08D
:103A00000E94270E8DE090E00E94F21E80931E021D
:103A100080911F02806880931F0282E091E0909362
:103A200022028093210282E090E090932001809313
:103A30001F0180917102843079F58091210190916C
:103A40002201A0912301B0912401892B8A2B8B2B79
:103A500019F1809118018F708093E90088E0E8E205
:103A6000F1E0DE01119601900D928A95E1F750E0A8
:103A700040E068E070E0CE0101960E94241250E020
:103A800040E062E070E08FE191E00E9424128091BA
:103A9000E8008E778093E80077247A94CC24C3944E
:103AA000D12C90E1592E22E1422E38E1A32EB12CE7
:103AB00040E4642E80917102853009F474C00E9444
:103AC000E30DA4E3B2E0E4E2F2E010E000E0702FE6
:103AD00061912D91261709F4B3C090E080E026276C
:103AE00030E0982EA901082E02C0559547950A94FA
:103AF000E2F740FFA0C089837A83C60102C0880F25
:103B0000991F9A94E2F74C01862F90E08821992121
:103B100021E0892B09F420E02B830E94A40381601B
:103B2000782F9D838C8349815A816B818D810E947E
:103B3000061BF801EC5CFD4F8081882680820E9484
:103B4000AD0590913202891721F00E94AD05809356
:103B5000320280917102843009F0AFC0809121015E
:103B600090912201A0912301B0912401892B8A2BED
:103B70008B2B09F4A2C0809113018F708093E90010
:103B80009091E80092FF99C02091F3009091F2008B
:103B9000322F292F232B09F069C08091E8008B7701
:103BA0008093E8008AC080917102843009F11092FC
:103BB00023020FB6F894A895A09260000FBE609201
:103BC000600083B7817F846083BF83B7816083BFD8
:103BD0007894889583B78E7F83BF0FB6F894A895A5
:103BE00080916000886180936000109260000FBE39
:103BF00080916702882309F45DCF0E94780D90E0E0
:103C000090930101809300010E9455090E9464096C
:103C100004E212E0F80111928F01EE16FF06D1F7CF
:103C20000E94E30DE4E2F2E08191811166C00E177B
:103C30001F07D1F73FCF01968430910509F051CF8E
:103C40000F5F1F4F0E30110509F041CF79867A863C
:103C50001B860E94A4038160782F9D878C874985ED
:103C60005A856B858D850E94061B69CF2091F300D4
:103C70009091F200322F292F232BF9F090917102AD
:103C80009430D9F48093E9008091E80082FF15C058
:103C90008091F3009091F200892798278927892B3A
:103CA00011F08091F1008091F3009091F20089274A
:103CB00098278927892B09F470CF8091710284306D
:103CC000C9F48091210190912201A0912301B0912A
:103CD0002401892B8A2B8B2B69F080910E018F7028
:103CE0008093E9008091E80080FF04C08DE091E0BE
:103CF0000E9431020E948E0EDDCE59BC49BC09B42F
:103D000000FEFDCF8091D8008F7D8093D8008091F8
:103D1000E00082608093E0008091E00081FDFCCFB4
:103D2000C9CE78941F920F920FB60F9211248F93E1
:103D30009F93AF93BF938091D3019091D401A091B1
:103D4000D501B091D6010196A11DB11D8093D3017B
:103D50009093D401A093D501B093D601BF91AF91B8
:103D60009F918F910F900FBE0F901F9018951F92EB
:103D70000F920FB60F9211248F939F93AF93BF931F
:103D800080912302811113C08091D3019091D401BD
:103D9000A091D501B091D6014196A11DB11D80938E
:103DA000D3019093D401A093D501B093D601BF91D4
:103DB000AF919F918F910F900FBE0F901F9018950C
:103DC000991B79E004C0991F961708F0961B881F6D
:103DD0007A95C9F780950895EE0FFF1F0590F4912D
:103DE000E02D0994F999FECF92BD81BDF89A9927EB
:103DF00080B50895A8E1B0E042E050E00C94261FA1
:103E0000262FF999FECF92BD81BDF89A019700B493
:103E1000021639F01FBA20BD0FB6F894FA9AF99A33
:103E20000FBE08950396272F0E94011F0E94001FB6
:103E3000252F0E94011F242F0C94011F0196272F6C
:103E40000E94011F0C94001FDC01CB01FC01F999B9
:103E5000FECF06C0F2BDE1BDF89A319600B40D92D6
:0C3E600041505040B8F70895F894FFCF8F
:103E6C0020007703C412E2018E125012010183105C
:103E7C000000010410000001820800000100000095
:103E8C000000000000000000A12000000000020063
:00000001FF
